:020000040000FA
:100000000C943C010C946D010C946D010C946D01E9
:100010000C946D010C946D010C946D010C946D01A8
:100020000C946D010C946D010C946D010C946D0198
:100030000C946D010C9472080C946D010C946D017C
:100040000C946D010C946D010C946D010C946D0178
:100050000C946D010C946D010C946D010C942808A6
:100060000C946D010C949B090C9471090C946D0116
:100070000C946D010C946D010C946D010C946D0148
:100080000C946D010C946D010C946D010C946D0138
:100090000C943B090C9411090C946D010C946D01A6
:1000A0000C946D010C946D010C946D010C946D0118
:1000B0000C946D010C946D010C946D010C946D0108
:1000C0000C946D010C946D010C946D010C946D01F8
:1000D0000C946D010C946D010C946D010C946D01E8
:1000E0000C946D010C9438020C9434020C9454025C
:1000F0000C9424020C9463040C9471040C94030279
:100100000C942E020C944D050C9400050C944F0495
:100110000C94FE010C94160A0C9450020C94A30645
:100120000C942A020C9415020C9440040C941D02A9
:100130000C9442020C9446020C944A020C94210244
:100140000C944E050C9413040C943C020C9419026C
:100150000C94B3040200002100240027002A002D83
:10016000003000330001010000040107010A010012
:10017000002200250028002B002E00310034000250
:10018000010000050108010B0100000A0B02090C27
:100190000D0E08070304010000000000000000002D
:1001A000000000000000000000000000000000004F
:1001B000000000000012111000000000000000000C
:1001C000000000000000000000000000000000002F
:1001D0000020002300260029002C002F0032000000
:1001E00001000003010601090105050505070508D1
:1001F000080808020202020A0A08080404040401AA
:1002000001010101010101030303030303030304CB
:100210000707070C0C0C0C0C0C0C0C02020202065B
:10022000060606060606060B0B0B0B0B0B0B0B014B
:1002300002102020080810204010204080020102F7
:1002400001080402010102040810204080804020BF
:1002500010080402018004020180402010080402FA
:100260000108040201010204081020408001020478
:10027000081020408000160A11241FBECFEFD1E2E3
:10028000DEBFCDBF00E00CBF13E0A0E0B2E0E8EDC0
:10029000F5E200E00BBF02C007900D92A832B10753
:1002A000D9F724E0A8E2B3E001C01D92A03CB20758
:1002B000E1F711E0CCE3D1E000E006C021970109AD
:1002C000802FFE010E94E212CB33D10780E00807A5
:1002D000A9F70E94A70A0C94EA120C940000FC01F2
:1002E000A089B18982E08C93A485B5851C92A685EE
:1002F000B78580E18C93108EA489B58986E08C93B4
:10030000A289B3898C9180618C93A289B3898C91E5
:1003100088608C93A289B3898C9180688C930288C1
:10032000F389E02D80818F7D80830895CF92DF92C5
:10033000EF92FF92CF93DF93B0919C04A0E08111E4
:10034000AB2F80919D0490E0880F991FAC01415321
:100350005E4FC090A204D090A304E090A404F0905B
:10036000A50430E020E0FA01C591D491E881B901FB
:1003700090E080E0EB23EA130AC02F5F3F4F6C153B
:100380007D058E059F0578F36FEF7FEFCB01DF9141
:10039000CF91FF90EF90DF90CF900895282F30E01D
:1003A000F901E757FE4F9491F901E15DFD4F44914A
:1003B00027513E4FF9012491222309F435C0992396
:1003C00011F191509231F8F4E92FF0E08827E451CF
:1003D000FE4F8F4F0C94E2121D022102FE01150206
:1003E0001902030224022A022E02340238023C02BD
:1003F0004202460203024A025002540280918000E7
:100400008F7780938000E22FF0E0EE0FFF1FE1591D
:10041000FE4FA591B4918FB7F894EC91611148C04B
:1004200040954E234C938FBF0895809180008F7D1F
:10043000E8CF80918000877FE4CF84B58F7784BD3B
:10044000E2CF84B58F7DFBCF8091B0008F77809312
:10045000B000D9CF8091B0008F7DF9CF809190000E
:100460008F7780939000CFCF809190008F7DF9CFD0
:1004700080919000877FF5CF8091A0008F77809347
:10048000A000C1CF8091A0008F7DF9CF8091A00006
:10049000877FF5CF809120018F7780932001B3CFA4
:1004A000809120018F7DF9CF80912001877FF5CF4A
:1004B0004E2BB8CFCF93DF9390E0FC01E15DFD4F71
:1004C000249187519E4FFC0184918823C9F090E0CC
:1004D000880F991FFC01EB5AFE4FA591B491FC01C6
:1004E000E159FE4FC591D49161110DC09FB7F894A9
:1004F0008C91209582238C938881282328839FBF09
:10050000DF91CF910895623051F49FB7F8943C91F8
:10051000822F809583238C93E8812E2BEFCF8FB78A
:10052000F894EC912E2B2C938FBFEACF90917B0007
:10053000977F90937B008653806480937C008091AA
:100540007A00806480937A0080917A0086FDFCCFE7
:10055000809178009091790008953FB7F894809148
:10056000530390915403A0915503B091560326B5BF
:10057000A89B05C02F3F19F00196A11DB11D3FBFDB
:10058000BA2FA92F982F8827BC01CD01620F711DAA
:10059000811D911D42E0660F771F881F991F4A95A4
:1005A000D1F708958F929F92AF92BF92CF92DF9230
:1005B000EF92FF924B015C010E94AD026B017C0146
:1005C0000E94AD026C197D098E099F09683E734037
:1005D00081059105A8F321E0821A9108A108B108CC
:1005E00088EEC80E83E0D81EE11CF11C8114910432
:1005F000A104B10429F7FF90EF90DF90CF90BF9056
:10060000AF909F908F900895CF92DF92EF92FF92DC
:100610000F931F93CF93DF93CDB7DEB7C054D14074
:100620000FB6F894DEBF0FBECDBF2FB7F894809100
:10063000570390915803A0915903B0915A032FBFCB
:1006400040919E0450919F046091A0047091A10478
:100650008C019D01041B150B260B370BB901A8015A
:10066000403D57406105710590F48091A604C05C3F
:10067000DE4F0FB6F894DEBF0FBECDBFDF91CF9136
:100680001F910F91FF90EF90DF90CF90089580938E
:100690009E0490939F04A093A004B093A104109291
:1006A0009904109298041092970410929604109254
:1006B000950462E080919A040E945A0261E070E021
:1006C00080E090E00E94D20261E080919A040E9452
:1006D0005A0260E080919A040E94CE0180919B04AE
:1006E0008551823020F58BE291E10197F1F762E0CC
:1006F00080919A040E945A028091A70490E082306F
:10070000910538F0880F991F880F991F0597019759
:10071000F1F7F89480E00E9496016F3F7F4F8F4F72
:100720009F4F61F41092A604789480E0A0CF64E11A
:1007300070E080E090E00E94D202D9CF81E00E9478
:1007400096016F3F7F4F8F4F9F4F61F38E010F5F79
:100750001F4F6E018FEBC81A8EEFD80A780180E028
:100760000E949601F701608371838283938381E005
:100770000E949601F7016483758386839783F8E06E
:10078000EF0EF11CEC14FD0451F7789430E020E0FA
:10079000F801C080D180E280F38044815581668178
:1007A0007781FFEFCF16DF06EF06FF0631F04F3FF0
:1007B0008FEF58076807780719F41092A604B5CF91
:1007C000F90183E0F595E7958A95E1F7EB56FB4F44
:1007D0008081880FC416D506E606F70610F18083DF
:1007E0002F5F3F4F085F1F4F2832310589F6409138
:1007F00099042091950480919604280F3327331F84
:1008000080919704280F311D80919804820F932FB7
:10081000911D99274817190681F681E08093A60457
:1008200026CF8160DCCFAF92BF92CF92DF92EF9262
:10083000FF920F931F93CF93DF936C017B018B018A
:10084000040F151FEB015E01AE18BF08C017D107DA
:1008500059F06991D601ED91FC910190F081E02D64
:10086000C6011995892B79F7C501DF91CF911F91A9
:100870000F91FF90EF90DF90CF90BF90AF900895D1
:10088000FC01538D448D252F30E0842F90E0821B96
:10089000930B541710F0CF96089501970895FC011B
:1008A000918D828D981761F0A28DAE0FBF2FB11D73
:1008B0005D968C91928D9F5F9F73928F90E00895CB
:1008C0008FEF9FEF0895FC01918D828D981731F085
:1008D000828DE80FF11D858D90E008958FEF9FEFD9
:1008E0000895FC01918D228D892F90E0805C9F4FAF
:1008F000821B91098F73992708958BE593E00E94DD
:10090000710421E0892B09F420E0822F089588EFFB
:1009100093E00E94710421E0892B09F420E0822FEA
:100920000895FC01A48DA80FB92FB11DA35ABF4F84
:100930002C91848D90E001968F739927848FA689DE
:10094000B7892C93A089B1898C91837080648C9332
:10095000938D848D981306C00288F389E02D8081E1
:100960008F7D80830895EF92FF920F931F93CF9313
:10097000DF93EC0181E0888F9B8D8C8D98131AC0DA
:10098000E889F989808185FF15C09FB7F894EE89C1
:10099000FF896083E889F98980818370806480831E
:1009A0009FBF81E090E0DF91CF911F910F91FF9069
:1009B000EF900895F62E0B8D10E00F5F1F4F0F7311
:1009C0001127E02E8C8D8E110CC00FB607FCFACFCC
:1009D000E889F989808185FFF5CFCE010E949104D5
:1009E000F1CFEB8DEC0FFD2FF11DE35AFF4FF0829D
:1009F0009FB7F8940B8FEA89FB8980818062CFCF03
:100A0000CF93DF93EC01888D8823B9F0AA89BB8945
:100A1000E889F9898C9185FD03C0808186FD0DC030
:100A20000FB607FCF7CF8C9185FFF2CF808185FF51
:100A3000EDCFCE010E949104E9CFDF91CF910895CF
:100A400080E090E0892B29F00E94870481110E94A8
:100A5000000080E090E0892B29F00E947D04811144
:100A60000E94000080E090E0892B49F080E090E057
:100A7000892B29F00E94000081110E94000080E073
:100A800090E0892B49F080E090E0892B29F00E94CA
:100A9000000081110C9400000895089590E080E01A
:100AA000089560E088E20E94CE0160E089E20E9441
:100AB000CE0160E08AE20E94CE0160E08BE20C94FD
:100AC000CE01CF93DF93EC0160E08E810E94CE01D6
:100AD00061E08E810E94CE0160E08E810E94CE0195
:100AE0008BE891E00197F1F7DF91CF910895CF92D4
:100AF000DF92EF92FF920F931F93CF93DF936C01DE
:100B00007C0187E0E80EF11CD0E0C0E0062F10E089
:100B1000B8010C2E02C0759567950A94E2F76170D2
:100B2000F70181917F010E94CE012196C430D10549
:100B300079F7C601DF91CF911F910F91FF90EF9050
:100B4000DF90CF900C946105CF92DF92EF92FF92ED
:100B50000F931F93CF93DF93EC01F62E642F8C81BC
:100B60000E94CE018D818F3F19F060E00E94CE017E
:100B70000F2D10E08F8584FF25C06E0187E0C80E21
:100B8000D11CF12CE12CB8010E2C02C07595679593
:100B90000A94E2F76170F60181916F010E94CE0123
:100BA000FFEFEF1AFF0A88E0E816F10461F7CE01C3
:100BB000DF91CF911F910F91FF90EF90DF90CF9039
:100BC0000C946105B80184E0759567958A95E1F705
:100BD000CE010E9477056F2DCE01DF91CF911F913D
:100BE0000F91FF90EF90DF90CF900C94770540E04D
:100BF000682F88EA94E00C94A405CF93DF938230A9
:100C000029F49091B70498609093B7048093BB0443
:100C10001092BC0480E48093BD0480E18093BE0404
:100C200080E58093BF0461E08091AC040E945A0289
:100C30008091AD048F3F19F061E00E945A0261E09B
:100C40008091AE040E945A02C8EAD4E09E01285A5C
:100C500034408091B70484FD0BC084E090E021967D
:100C60002817390744F461E08E810E945A02EECFC2
:100C700088E090E0F4CF8BE39DE00197F1F760E02E
:100C80008091AC040E94CE0160E08091AE040E948D
:100C9000CE018091AD048F3F19F060E00E94CE013B
:100CA0008091B70484FD39C063E088EA94E00E9433
:100CB0007705CBE4D6E4CE010197F1F763E088EA4B
:100CC00094E00E9477052197F1F763E088EA94E0C9
:100CD0000E94770583E592E00197F1F762E088EAE8
:100CE00094E00E9477058091B70480620E94F70526
:100CF00084E08093B8048CE00E94F70581E00E94B4
:100D0000F7058BE39FE10197F1F782E08093B90447
:100D100086E0DF91CF910C94F70580620E94F70581
:100D20008BE496E40197F1F78091B70480620E940A
:100D3000F70583E592E00197F1F78091B7048062AF
:100D40000E94F705D0CF41E00E94A40581E090E029
:100D50000895FB0101900020E9F73197AF01461B90
:100D6000570BDC01ED91FC910280F381E02D199489
:100D70008F929F92AF92BF92EF92FF920F931F9329
:100D8000CF93DF93CDB7DEB7A1970FB6F894DEBF50
:100D90000FBECDBF7C01FA01CB0119A2223008F4AD
:100DA0002AE08E010F5D1F4F822E912CB12CA12CB9
:100DB000BF01A50194010E94C012F901CA016A3065
:100DC0000CF5605DD8016E938D01232B242B252B10
:100DD00079F790E080E0109721F0BD01C7010E94F3
:100DE000A906A1960FB6F894DEBF0FBECDBFDF9166
:100DF000CF911F910F91FF90EF90BF90AF909F9078
:100E00008F900895695CDECFCF92DF92EF92FF92D0
:100E10000F931F93CF93DF936B01770FEE08FF08BB
:100E2000F7FE1FC0EC01E881F9810190F081E02D0F
:100E30006DE219958C0144275527BA014C195D09BB
:100E40006E097F092AE0CE010E94B806800F911F2B
:100E5000DF91CF911F910F91FF90EF90DF90CF9096
:100E600008952AE0B701A601DF91CF911F910F915C
:100E7000FF90EF90DF90CF900C94B8064F925F9266
:100E80006F927F928F929F92AF92BF92CF92DF929A
:100E9000EF92FF920F931F93CF936B017C01742EFF
:100EA000AC019B010E94BB1261E372E0811126C07C
:100EB00046015701E894B7F82FEF3FEF4FE75FE7A0
:100EC000C501B4010E94BB1281110CC02FEF3FEF8E
:100ED0004FE75FE7C501B4010E94EA1065E372E0E5
:100EE000181664F02FEF3FEF4FE75FE4C701B6013C
:100EF0000E9449121816ACF469E372E088EF93E09F
:100F0000CF911F910F91FF90EF90DF90CF90BF9006
:100F1000AF909F908F907F906F905F904F900C94C8
:100F2000A9062FEF3FEF4FE75FECC701B6010E9424
:100F3000EA1087FDE1CF20E030E0A901C701B6014A
:100F40000E94EA1010E000E087FF0AC06DE288EF1F
:100F500093E00E94B3048C01F7FAF094F7F8F09450
:100F6000C0E060E070E080E09FE37C1641F020E0AC
:100F700030E040E251E40E94EF10CF5FF6CFA701CE
:100F800096010E947E102B013C010E9468114B01CA
:100F90005C012AE0BC01A40188EF93E00E94B8063E
:100FA0007C01E00EF11ECC23D1F1C501B4010E94F9
:100FB00097119B01AC01C301B2010E947D104B014E
:100FC0005C016EE288EF93E00E94B304E80EF91E24
:100FD000C15028F120E030E040E251E4C501B40105
:100FE0000E944E122B013C010E9468114B01B12C52
:100FF000A12C2AE0B501A40188EF93E00E94B80675
:10100000E80EF91EC501B4010E9497119B01AC01C5
:10101000C301B2010E947D104B015C01D9CFC70111
:10102000CF911F910F91FF90EF90DF90CF90BF90E5
:10103000AF909F908F907F906F905F904F900895AA
:101040006115710511F00C94A90690E080E00895F7
:101050001F920F920FB60F9211242F933F938F93ED
:101060009F93AF93BF938091570390915803A091A2
:101070005903B0915A033091520323E0230F2D37C7
:1010800058F50196A11DB11D20935203809357037B
:1010900090935803A0935903B0935A03809153033C
:1010A00090915403A0915503B09156030196A11D50
:1010B000B11D8093530390935403A0935503B093B1
:1010C0005603BF91AF919F918F913F912F910F90B8
:1010D0000FBE0F901F90189526E8230F0296A11DB2
:1010E000B11DD2CF1F920F920FB60F9211240BB6E3
:1010F0000F922F933F934F935F936F937F938F93B1
:101100009F93AF93BF93EF93FF9380913C03909194
:101110003D03A0913E03B0913F03892B8A2B8B2B7B
:10112000E1F190912B03E0912C03F0912D0380814C
:101130008927808380913C0390913D03A0913E03D9
:10114000B0913F03181619061A061B069CF48091ED
:101150003C0390913D03A0913E03B0913F03019762
:10116000A109B10980933C0390933D03A0933E03F2
:10117000B0933F03FF91EF91BF91AF919F918F91FA
:101180007F916F915F914F913F912F910F900BBE87
:101190000F900FBE0F901F90189580910002E4E50C
:1011A000F1E0E4919FEF90930002E230E9F040F427
:1011B000EE2389F0E13091F060E00E94CE01DACFB9
:1011C000E43049F110F1E530B9F7909173009D7F5B
:1011D00090937300F1CF10926E00EECF90916F005C
:1011E0009D7F90936F00E8CF909170009D7F9093CA
:1011F000700091E09093B0009091B100987F94605E
:101200009093B1001092B300D7CF909171009D7F61
:1012100090937100D1CF909172009D7F9093720056
:10122000CBCF1F920F920FB60F9211240BB60F92D5
:101230002F933F934F935F936F937F938F939F93DE
:10124000AF93BF93EF93FF938BE593E00E949104DC
:10125000FF91EF91BF91AF919F918F917F916F918E
:101260005F914F913F912F910F900BBE0F900FBE4A
:101270000F901F9018951F920F920FB60F92112486
:101280000BB60F922F938F939F93EF93FF93E09161
:101290006B03F0916C038081E0917103F091720314
:1012A00082FD1DC09081809174038F5F8F732091A8
:1012B0007503821741F0E0917403F0E0E55AFC4FAA
:1012C000958F80937403FF91EF919F918F912F9150
:1012D0000F900BBE0F900FBE0F901F90189580813E
:1012E000F2CF1F920F920FB60F9211240BB60F92EE
:1012F0002F933F934F935F936F937F938F939F931E
:10130000AF93BF93EF93FF9388EF93E00E94910414
:10131000FF91EF91BF91AF919F918F917F916F91CD
:101320005F914F913F912F910F900BBE0F900FBE89
:101330000F901F9018951F920F920FB60F921124C5
:101340000BB60F922F938F939F93EF93FF93E091A0
:101350000804F09109048081E0910E04F0910F04DB
:1013600082FD1DC09081809111048F5F8F73209149
:101370001204821741F0E0911104F0E0E850FC4FB4
:10138000958F80931104FF91EF919F918F912F91F1
:101390000F900BBE0F900FBE0F901F90189580817D
:1013A000F2CFCF92DF92EF92FF920F931F93E82F2D
:1013B000F92F05C0015011092109310961F190810E
:1013C00096239417B9F305C0015011092109310979
:1013D00011F1908196239413F7CFC12CD12CE12CDD
:1013E000F12C0AC08FEFC81AD80AE80AF80A0C15BF
:1013F0001D052E053F0579F080818623841791F322
:101400006C2D7D2D8E2D9F2D1F910F91FF90EF90B4
:10141000DF90CF90089560E070E080E090E01F9151
:101420000F91FF90EF90DF90CF900895EBE5F3E000
:101430001382128248EE53E060E070E044835583EB
:101440006683778387E192E0918380832DEC30E09F
:10145000358724872CEC30E03787268728EC30E06E
:10146000318B208B29EC30E0338B228B2AEC30E05F
:10147000358B248B2EEC30E0378B268B118E128E21
:10148000138E148EE8EFF3E01382128244835583A7
:10149000668377839183808385EC90E0958784874A
:1014A00084EC90E09787868780EC90E0918B808B2E
:1014B00081EC90E0938B828B82EC90E0958B848B17
:1014C00086EC90E0978B868B118E128E138E148E85
:1014D000E8EAF4E01382128289E292E09183808349
:1014E0008EE184838FEF85838FE1868380E287831B
:1014F00081E2808782E2818783E282871386148675
:1015000015861686178681E00E94FD05A5E9B4E0E0
:1015100088E115968C93159786E116968C9316970D
:10152000E7E4F2E0E4911796EC931797E1E0F2E03C
:10153000E4911896EC93189740E85EE360E070E061
:101540001D964D935D936D937C9350970895CF9323
:10155000DF93CDB7DEB72E970FB6F894DEBF0FBE80
:10156000CDBF789484B5826084BD84B5816084BD2C
:1015700085B5826085BD85B5816085BD80916E0031
:10158000816080936E001092810080918100826062
:10159000809381008091810081608093810080919F
:1015A00080008160809380008091B100846080938E
:1015B000B1008091B00081608093B0008091910073
:1015C000826080939100809191008160809391006E
:1015D000809190008160809390008091A100826052
:1015E0008093A1008091A10081608093A1008091EF
:1015F000A00081608093A00080912101826080938F
:10160000210180912101816080932101809120013D
:1016100081608093200180917A00846080937A00B9
:1016200080917A00826080937A0080917A00816054
:1016300080937A0080917A00806880937A0010927B
:10164000C10061E086E10E945A0260E087E10E94E9
:101650005A0260E089E10E945A0261E086E00E943D
:101660005A028AE0E9E0F2E0DE01119601900D9263
:101670008A95E1F78E010F5F1F4F7E012BE0E20E8E
:10168000F11C61E0D8018D918D010E945A020E1566
:101690001F05B9F70E94510562E080919A040E94EB
:1016A0005A022FB7F8948091570390915803A09154
:1016B0005903B0915A032FBF805D9740A109B1092A
:1016C00080939E0490939F04A093A004B093A104E0
:1016D00087E38093A70482E00E94FD0588EF93E0F2
:1016E0000E946F018BE593E00E946F016BE472E052
:1016F00088EA94E00E9420086CE572E088EF93E0AD
:101700000E94A90661E772E088EF93E00E94A906B3
:10171000B0EB4B2E55245394612C712C1BE5212EDC
:1017200011E1312E2FB7F89480915703909158030F
:10173000A0915903B0915A032FBF40914E0350918D
:101740004F036091500370915103841B950BA60BBE
:10175000B70B883E9340A105B10508F4A7C42FB785
:10176000F8948091570390915803A0915903B09138
:101770005A032FBF80934E0390934F03A0935003BF
:10178000B093510360E086E10E94CE0183E090E0D7
:101790000197F1F761E086E10E94CE0183E290E0DB
:1017A0000197F1F760E086E10E94CE01E6E4F2E005
:1017B0006491E0E0F2E08491E82FF0E0EE0FFF1F8B
:1017C000E153FE4F8591949100E315E720E030E06E
:1017D000462F0E94D1096115710581059105D9F146
:1017E0006F5F7F4F8F4F9F4F9F7061157105810510
:1017F000910589F10E94971128E23EE74CE05DE3F4
:101800000E944E1220E030E040E05FE30E944E1262
:101810006B877C878D879E878B859C85AD85BE85F4
:1018200080934A0390934B03A0934C03B0934D03D2
:101830000E940403882341F080919B048C3009F4BA
:1018400073C090F48B3049F1C12CD12C70ECE72E91
:101850007FE7F72E4CC080E090ECA9E7B4E48B87DB
:101860009C87AD87BE87D8CF8551823068F71091AD
:101870009704612F70E0762F662766277F77809127
:101880009804682B90E080E00E9497112DEC3CECCE
:101890004CEC5DE30E944E1263C06091970470E0CF
:1018A00090E080E00E9497116B017C0110919804F8
:1018B00017FF0AC0AC019B0160E070E080E89FEB7D
:1018C0000E947D106B017C011F70612F70E090E021
:1018D00080E00E9499112DEC3CEC4CEC5DE30E9401
:1018E0004E12A70196010E947E106B017C01C092EE
:1018F0000502D0920602E0920702F09208020E94CE
:101900000403882351F080919B048B3030F08D309C
:1019100080F18551823008F4F4C0812C912C60EC68
:10192000A62E6FE7B62E43C010919704612F70E08A
:1019300090E080E00E9497116B017C016091980417
:101940006F7070E090E080E00E9499112DEC3CEC0B
:101950004CEC5DE30E944E12A70196010E947E109E
:101960006B017C0117FFC3CFF7FAF094F7F8F094FE
:10197000BECF6091960470E090E080E00E949911E3
:101980002DEC3CEC4CEC5DE30E944E124B015C01F3
:101990006091950470E090E080E00E9499119B01B5
:1019A000AC01C501B4010E947E104B015C01809224
:1019B000010290920202A0920302B0920402A701D7
:1019C0009601C701B6010E94BB1211E0811109C046
:1019D000A5019401C501B4010E94BB12811101C08F
:1019E00010E088E30E9496027C0189E30E9496023F
:1019F0006C018AE30E9496025C0120E030E044E33F
:101A000053E46B857C858D859E850E94491201E09B
:101A100018164CF0012F111106C001E094E1C9160F
:101A2000D1040CF000E000934903A4E1EA16F104AC
:101A30000CF479C0111106C011E0B4E1AB16B10489
:101A40000CF010E0109348030E94510561E08CE215
:101A50000E94CE0161E08DE20E94CE01011165C0BD
:101A600061E088E20E94CE0161E08AE20E94CE013C
:101A700011112EC361E089E20E94CE0161E08BE288
:101A80000E94CE0161E060278EE20E94CE01602FAD
:101A90008FE20E94CE01612F80E30E94CE010023DD
:101AA00009F423C361E081E30E94CE01809100022A
:101AB000863009F03FC0E4E5F1E0149117FD98C1CC
:101AC00061E086E00E945A02112309F40AC1123033
:101AD00009F01BC18091B100887F83608093B100C1
:101AE00089E88093B30040923C0350923D0360929A
:101AF0003E0370923F03809170008260809370007B
:101B000077C16091950470919604762767277627B0
:101B100090E080E00E9497112DEC3CEC4CEC5DE3F2
:101B20000E944E1242CF11E08DCF112309F4A2CFB3
:101B300060E0AACF8F3F09F05BC186E0809300028E
:101B4000E4E5F1E01491812F1F3F09F451C11230F7
:101B500009F468C060F4112379F1113009F444C02C
:101B600087FD46C161E086E00E945A02B0CF143082
:101B700009F499C008F478C0153091F7109220014B
:101B80001092210180912101886080932101809130
:101B90002101816080932101EFEEF1E0E491F0E01A
:101BA000EE0FFF1FE159FE4F85919491E5E3F2E0BE
:101BB000E491E093280384CF14BC15BC84B5826003
:101BC00084BD85B5816085BDEFEEF1E0E491F0E084
:101BD000EE0FFF1FE159FE4F85919491E5E3F2E08E
:101BE000E491E0932F036CCF10928000109281005B
:101BF0008091810088608093810080918100816064
:101C000080938100EFEEF1E0E491F0E0EE0FFF1F32
:101C1000E159FE4F85919491E5E3F2E0E491E09380
:101C20002E034ECF1092B0001092B1008091B00000
:101C300082608093B0008091B10081608093B10098
:101C4000EFEEF1E0E491F0E0EE0FFF1FE159FE4FFF
:101C50008591949190932D0380932C03E5E3F2E01A
:101C6000E491E0932B032CCF1092900010929100FE
:101C700080919100886080939100809191008160B3
:101C800080939100EFEEF1E0E491F0E0EE0FFF1FA2
:101C9000E159FE4F85919491E5E3F2E0E491E09300
:101CA0002A0313E00DCF1092A0001092A1008091A2
:101CB000A10088608093A1008091A1008160809341
:101CC000A100EFEEF1E0E491F0E0EE0FFF1FE1592B
:101CD000FE4F85919491E5E3F2E0E491E0932903CE
:101CE000EFCE85B5887F836085BD84E487BD409253
:101CF00044035092450360924603709247038091DB
:101D00006E00826080936E0073C01130C1F48091C8
:101D10008100887F816080938100309289002092C9
:101D200088004092400350924103609242037092B7
:101D3000430380916F00826080936F0059C013301D
:101D4000C1F480919100887F8160809391003092EE
:101D50009900209298004092380350923903609283
:101D60003A0370923B03809171008260809371000E
:101D70003FC01430C1F48091A100887F81608093BE
:101D8000A1003092A9002092A80040923403509202
:101D9000350360923603709237038091720082603F
:101DA0008093720025C01530C1F480912101887F95
:101DB0008160809321013092290120922801409274
:101DC000300350923103609232037092330380915A
:101DD00073008260809373000BC0123009F474C1E9
:101DE0000CF067C1112309F46DC1113009F495CFCE
:101DF000E1E08091BB048111E0E0E195F0E0E8557D
:101E0000FB4F848980680E94F70564E772E088EAE6
:101E100094E00E94200860914A0370914B038091E6
:101E20004C0390914D030E94611188EA94E00E9456
:101E3000040767E772E088EA94E00E942008609156
:101E400005027091060280910702909108020E949B
:101E5000611188EA94E00E9404076BE772E088EA67
:101E600094E00E942008E091BB04E23008F02EC10B
:101E7000E150F0E0E855FB4F848980680E94F70547
:101E8000809149036DE372E0811102C060E472E069
:101E900088EA94E00E9420086EE772E088EA94E005
:101EA0000E9420088091480364E472E0811102C01E
:101EB00067E472E088EA94E00E94200860E872E03B
:101EC00088EA94E00E942008B70188EA94E00E9422
:101ED00004076EE772E088EA94E00E94200864E854
:101EE00072E088EF93E00E94200860914A037091AD
:101EF0004B0380914C0390914D0341E00E943E07BB
:101F000067E972E088EF93E00E9420086091050283
:101F100070910602809107029091080241E00E94B0
:101F20003E0766EA72E088EF93E00E942008609125
:101F3000010270910202809103029091040241E03B
:101F40000E943E0762EB72E088EF93E00E94200857
:101F500086E30E949602BC0188EF93E00E9404078A
:101F60006EEB72E088EF93E00E94200887E30E9406
:101F70009602BC0188EF93E00E94040767EC72E0D0
:101F800088EF93E00E9420086091490311E06127E7
:101F900070E088EF93E00E9404076FEC72E088EF36
:101FA00093E00E94200860914803612770E088EF69
:101FB00093E00E94040767ED72E088EF93E00E94CF
:101FC0002008B60188EF93E00E94040760EE72E0FB
:101FD00088EF93E00E942008B50188EF93E00E940B
:101FE000040769EE72E088EF93E00E942008609198
:101FF0004903612770E088EF93E00E94040762EFD5
:1020000072E088EF93E00E94200860914803612706
:1020100070E088EF93E00E9404076BEF72E088EFB6
:1020200093E00E9420086091490370E088EF93E0FC
:102030000E94040765E073E088EF93E00E942008A7
:102040006091480370E088EF93E00E9404076FE01E
:1020500073E088EF93E00E94A90661E772E088EFE1
:1020600093E00E94A90662E173E08BE593E00E9491
:10207000200860914903612770E08BE593E00E949E
:10208000040763E273E08BE593E00E94200860910F
:1020900048031627612F70E08BE593E00E94040748
:1020A00061E772E08BE593E00E94A9060E9420059B
:1020B00039CB143009F465CE0CF449CE153009F44F
:1020C0007ACE96CE8BE512CE8BE50BCDE1E0D1CE6C
:1020D00060E08EE20E94CE0160E08FE20E94CE01BD
:1020E00061E080E30E94CE01DDCC612F81E30E949C
:1020F000CE01112309F47CCED9CC5058BB27AA2796
:102100000E9495100C940F120E94011238F00E9448
:10211000081220F039F49F3F19F426F40C94FE11B4
:102120000EF4E095E7FB0C94F811E92F0E942012C1
:1021300058F3BA17620773078407950720F079F4FC
:10214000A6F50C9442120EF4E0950B2EBA2FA02D9A
:102150000B01B90190010C01CA01A0011124FF2754
:10216000591B99F0593F50F4503E68F11A16F0404F
:10217000A22F232F342F4427585FF3CF469537954E
:102180002795A795F0405395C9F77EF41F16BA0B13
:10219000620B730B840BBAF09150A1F0FF0FBB1FC1
:1021A000661F771F881FC2F70EC0BA0F621F731F0A
:1021B000841F48F4879577956795B795F7959E3F67
:1021C00008F0B0CF9395880F08F09927EE0F9795F8
:1021D000879508950E94D41108F481E008950E9423
:1021E00003110C940F120E94081258F00E94011261
:1021F00040F029F45F3F29F00C94F81151110C9430
:1022000043120C94FE110E94201268F39923B1F33B
:10221000552391F3951B550BBB27AA27621773070C
:10222000840738F09F5F5F4F220F331F441FAA1FA0
:10223000A9F335D00E2E3AF0E0E832D0915050405C
:10224000E695001CCAF72BD0FE2F29D0660F771F0A
:10225000881FBB1F261737074807AB07B0E809F0F0
:10226000BB0B802DBF01FF2793585F4F3AF09E3F75
:10227000510578F00C94F8110C9443125F3FE4F38D
:10228000983ED4F3869577956795B795F7959F5FB8
:10229000C9F7880F911D9695879597F90895E1E004
:1022A000660F771F881FBB1F621773078407BA0763
:1022B00020F0621B730B840BBA0BEE1F88F7E095BE
:1022C00008950E9468116894B1110C944312089506
:1022D0000E94281288F09F5798F0B92F9927B7517C
:1022E000B0F0E1F0660F771F881F991F1AF0BA95BA
:1022F000C9F714C0B13091F00E944212B1E00895C4
:102300000C944212672F782F8827B85F39F0B93FB5
:10231000CCF3869577956795B395D9F73EF490956C
:102320008095709561957F4F8F4F9F4F0895E894EA
:1023300009C097FB3EF490958095709561957F4F0D
:102340008F4F9F4F9923A9F0F92F96E9BB279395BB
:10235000F695879577956795B795F111F8CFFAF4CB
:10236000BB0F11F460FF1BC06F5F7F4F8F4F9F4FFC
:1023700016C0882311F096E911C0772321F09EE85A
:10238000872F762F05C0662371F096E8862F70E0C0
:1023900060E02AF09A95660F771F881FDAF7880F9A
:1023A0009695879597F90895990F0008550FAA0BF0
:1023B000E0E8FEEF16161706E807F907C0F0121658
:1023C0001306E407F50798F0621B730B840B950B5B
:1023D00039F40A2661F0232B242B252B21F40895B0
:1023E0000A2609F4A140A6958FEF811D811D08954D
:1023F00097F99F6780E870E060E008959FEF80ECB8
:10240000089500240A94161617061806090608955A
:1024100000240A9412161306140605060895092EC0
:102420000394000C11F4882352F0BB0F40F4BF2B2F
:1024300011F460FF04C06F5F7F4F8F4F9F4F08956F
:1024400057FD9058440F551F59F05F3F71F0479565
:10245000880F97FB991F61F09F3F79F0879508954A
:10246000121613061406551FF2CF4695F1DF08C069
:10247000161617061806991FF1CF86957105610586
:1024800008940895E894BB2766277727CB0197F92E
:1024900008950E94D41108F48FEF08950E946112EC
:1024A0000C940F120E94011238F00E94081220F0C2
:1024B000952311F00C94F8110C94FE1111240C9436
:1024C00043120E94201270F3959FC1F3950F50E0C4
:1024D000551F629FF001729FBB27F00DB11D639FD6
:1024E000AA27F00DB11DAA1F649F6627B00DA11D7C
:1024F000661F829F2227B00DA11D621F739FB00D22
:10250000A11D621F839FA00D611D221F749F332791
:10251000A00D611D231F849F600D211D822F762F2A
:102520006A2F11249F5750409AF0F1F088234AF007
:10253000EE0FFF1FBB1F661F771F881F9150504073
:10254000A9F79E3F510580F00C94F8110C944312AA
:102550005F3FE4F3983ED4F3869577956795B795FA
:10256000F795E7959F5FC1F7FE2B880F911D969514
:10257000879597F908950E94D411880B990B0895B7
:10258000A1E21A2EAA1BBB1BFD010DC0AA1FBB1F77
:10259000EE1FFF1FA217B307E407F50720F0A21BE9
:1025A000B30BE40BF50B661F771F881F991F1A9456
:1025B00069F760957095809590959B01AC01BD0180
:1025C000CF010895EE0FFF1F881F8BBF0790F69174
:1025D000E02D1994F894FFCFFF0000C07F0000C0E9
:1025E0007F28292A2B2C2D2E2F303100000000B3FC
:1025F0000413044004000571044F04630400000048
:1026000000A30613044E054D056E616E00696E66EB
:10261000006F766600412100414F4B00422100428D
:102620004F4B005445534C41582053414645204D93
:102630004F4445005445534C41582C424F4F542C65
:102640004D45474132353630000D0A00443A0020EE
:10265000543A004320202000205258005445534C47
:102660004158207B2064697374616E63653A002C65
:102670002074656D70657261747572653A002C2006
:1026800068756D69646974793A002C206D6F69739F
:10269000747572653A002C206C696768743A002C76
:1026A00020656E64413A002C20656E64423A002C2D
:1026B0002067726964413A002C2067726964423A6B
:1026C000002C20636F696C413A002C20636F696CA9
:1026D000423A002C206661756C74413A002C2066E9
:1026E00061756C74423A00207D005445534C41584A
:1026F0005F42524944474520413D0020423D000091
:020000040003F7
:10E000000D9489F10D94B2F10D94B2F10D94B2F129
:10E010000D94B2F10D94B2F10D94B2F10D94B2F1F0
:10E020000D94B2F10D94B2F10D94B2F10D94B2F1E0
:10E030000D94B2F10D94B2F10D94B2F10D94B2F1D0
:10E040000D94B2F10D94B2F10D94B2F10D94B2F1C0
:10E050000D94B2F10D94B2F10D94B2F10D94B2F1B0
:10E060000D94B2F10D94B2F10D94B2F10D94B2F1A0
:10E070000D94B2F10D94B2F10D94B2F10D94B2F190
:10E080000D94B2F10D94B2F10D94B2F10D94B2F180
:10E090000D94B2F10D94B2F10D94B2F10D94B2F170
:10E0A0000D94B2F10D94B2F10D94B2F10D94B2F160
:10E0B0000D94B2F10D94B2F10D94B2F10D94B2F150
:10E0C0000D94B2F10D94B2F10D94B2F10D94B2F140
:10E0D0000D94B2F10D94B2F10D94B2F10D94B2F130
:10E0E0000D94B2F141546D656761323536300041AF
:10E0F000726475696E6F206578706C6F72657220DE
:10E1000073746B3530305632206279204D4C530099
:10E11000426F6F746C6F616465723E004875683F52
:10E1200000436F6D70696C6564206F6E203D200048
:10E130004350552054797065202020203D20005FF9
:10E140005F4156525F415243485F5F3D2000415658
:10E1500052204C696243205665723D20004743437C
:10E160002056657273696F6E203D20004350552024
:10E1700049442020202020203D20004C6F7720663D
:10E18000757365202020203D20004869676820665F
:10E190007573652020203D200045787420667573D6
:10E1A00065202020203D20004C6F636B2066757336
:10E1B000652020203D20004D617220203720323024
:10E1C000313300312E362E3800342E332E350056A2
:10E1D00023202020414444522020206F7020636F70
:10E1E00064652020202020696E73747275637469E1
:10E1F0006F6E2061646472202020496E74657272B3
:10E20000757074006E6F20766563746F7200726A49
:10E210006D702020006A6D70200057686174207056
:10E220006F72743A00506F7274206E6F7420737541
:10E2300070706F72746564004D7573742062652030
:10E2400061206C6574746572002000577269747483
:10E25000696E672045450052656164696E672045B7
:10E26000450045452065727220636E743D00504F35
:10E27000525400303D5A65726F2061646472003FF1
:10E280003D43505520737461747300403D454550C3
:10E29000524F4D207465737400423D426C696E6B41
:10E2A000204C454400453D44756D70204545505215
:10E2B0004F4D00463D44756D7020464C415348001B
:10E2C000483D48656C70004C3D4C69737420492F83
:10E2D0004F20506F72747300513D51756974005234
:10E2E0003D44756D702052414D00563D73686F7707
:10E2F00020696E7465727275707420566563746FF0
:10E30000727300593D506F727420626C696E6B00BD
:10E310002A0011241FBECFEFD1E2DEBFCDBF01E046
:10E320000CBF12E0A0E0B2E0EEE1FDEF03E00BBFB6
:10E3300002C007900D92A030B107D9F712E0A0E01B
:10E34000B2E001C01D92AE30B107E1F70F9460F367
:10E350000D948DFE01E20EBF0FEF0DBF11241FBE05
:10E360000D9460F30D9400F020E030E040ED57E0B4
:10E3700005C0FA013197F1F72F5F3F4F2817390792
:10E38000C0F308959C01260F311DC901A0E0B0E043
:10E390002F5F3F4FABBFFC018791882361F08093D3
:10E3A000C6008091C00086FFFCCF8091C0008064D1
:10E3B0008093C000EACF08958DE08093C6008091DD
:10E3C000C00086FFFCCF8091C00080648093C000B5
:10E3D0008AE08093C6008091C00086FFFCCF8091C8
:10E3E000C00080648093C00008950F94C2F10F9420
:10E3F000DCF10895FC019081992359F09093C600B7
:10E400008091C00086FFFCCF8091C0008064809323
:10E41000C0003196992379F70895282F982F929567
:10E420009F70892F805D8A3308F0895F8093C600D2
:10E430008091C00086FFFCCF8091C00080648093F3
:10E44000C000822F8F70982F905D9A3308F0995FEB
:10E450009093C6008091C00086FFFCCF8091C000E1
:10E4600080648093C00008959C01FB01853691056E
:10E470001CF46330710594F0C90164E670E00F94F8
:10E480002EFE605D7F4F6093C6008091C00086FFC6
:10E49000FCCF8091C00080648093C0002B30310598
:10E4A00014F43297B4F0C90164E670E00F942EFEC4
:10E4B0006AE070E00F942EFE605D7F4F6093C600AF
:10E4C0008091C00086FFFCCF8091C0008064809363
:10E4D000C000C9016AE070E00F942EFEC0968093E0
:10E4E000C6008091C00086FFFCCF8091C000806490
:10E4F0008093C00008951F93182F8EE692EE60E07F
:10E500000F94C2F11093C6008091C00086FFFCCF2B
:10E510008091C00080648093C0000F94DCF11F9153
:10E5200008952F923F924F925F926F927F928F92B7
:10E530009F92AF92BF92CF92DF92EF92FF920F9392
:10E540001F93DF93CF93CDB7DEB762970FB6F894E2
:10E55000DEBF0FBECDBF382E622ECA01DB015C01CB
:10E560006D01772420E2222E2E010894411C511CBB
:10E570008BC081E0A81680E0B80681E0C80680E084
:10E58000D80628F0C601AA27BB270F940DF2BB2797
:10E59000AD2D9C2D8B2D0F940DF28A2D0F940DF225
:10E5A0002092C6008091C00086FFFCCF8091C00001
:10E5B00080648093C0009DE29093C6008091C0006B
:10E5C00086FFFCCF8091C00080648093C0002092C1
:10E5D000C6008091C00086FFFCCF8091C00080649F
:10E5E0008093C00019828601750188249924A1E0D6
:10E5F0003A1651F03A1620F0B2E03B1661F409C029
:10E600000BBFF701779007C0C7010F9477FE782EF4
:10E6100002C0F7017080872D0F940DF22092C60082
:10E620008091C00086FFFCCF8091C0008064809301
:10E63000C000872D8052F401EF70F0708F3520F408
:10E64000E40DF51D708204C0E40DF51D8EE280839B
:10E650000894E11CF11C011D111D0894811C911CE2
:10E6600090E18916910409F0C2CF80E190E0A0E02A
:10E67000B0E0A80EB91ECA1EDB1E198AC2010F9493
:10E68000FAF10F94DCF16A94662009F072CF629679
:10E690000FB6F894DEBF0FBECDBFCF91DF911F91B3
:10E6A0000F91FF90EF90DF90CF90BF90AF909F9031
:10E6B0008F907F906F905F904F903F902F90089534
:10E6C0002F923F924F925F926F927F928F929F9282
:10E6D000AF92BF92CF92DF92EF92FF920F931F9370
:10E6E000DF93CF93CDB7DEB7CD53D1400FB6F894BB
:10E6F000DEBF0FBECDBF01E20EBF0FEF0DBF94B75F
:10E70000F894A89514BE80916000886180936000A1
:10E7100010926000789493FF05C0E0910002F091A0
:10E7200001021995279A2F9A8091C00082608093E8
:10E73000C00080E18093C40088E18093C1000000A4
:10E74000EE24FF24870144E0A42EB12CCC24DD2448
:10E7500024C0C5010197F1F70894E11CF11C011DCB
:10E76000111D21E2E2162EE4F20620E0020720E06D
:10E77000120718F031E0C32ED12CC801B70127ECE5
:10E780003BE140E050E00F9441FE611571058105C9
:10E79000910519F485B1805885B98091C00087FD35
:10E7A00003C0C114D104A9F2A6014F5F5F4FC25E3E
:10E7B000DE4F59834883CE51D140C25EDE4F8881FF
:10E7C0009981CE51D140019711F00D9410FEC05D9A
:10E7D000DE4F19821882C053D14060E0C15DDE4F28
:10E7E0001882CF52D14088249924C35DDE4F19820C
:10E7F0001882CD52D140C05EDE4F188219821A8233
:10E800001B82C052D140CE5CDE4F188219821A8220
:10E810001B82C253D140EE24FF2487010BBFF701B6
:10E8200007911691C45CDE4F19830883CC53D14005
:10E830000D940BFEC25EDE4F28813981CE51D1404E
:10E840002130310509F52091C600C25EDE4F1982E4
:10E850001882CE51D14022C02F5F3F4F4F4F5F4FA4
:10E86000213082E138078AE7480780E0580780F0C6
:10E87000C45CDE4FE881F981CC53D140EF5FFF4F9C
:10E8800019F0EE27FF27099420E030E040E050E047
:10E890008091C00087FFE0CF2091C600C35DDE4FAE
:10E8A00048815981CD52D1404F5F5F4FC35DDE4FEC
:10E8B00059834883CD52D140213209F063C64A3092
:10E8C000510508F05FC60894811C911C53E0851621
:10E8D000910409F059C600E010E018C081E280936D
:10E8E000C6008091C00086FFFCCF8091C00080648C
:10E8F0008093C0002F5F3F4F2931310579F70F9486
:10E90000DCF10F5F1F4F0530110519F020E030E0FA
:10E91000E5CF10920A0210920B0210920C02109294
:10E920000D02109206021092070210920802109235
:10E930000902109202021092030210920402109235
:10E9400005028FEE90EE60E00F94F5F180E191EE1C
:10E9500060E00F94C2F18091C00087FFFCCF9091DE
:10E96000C600903608F09F759032B8F09093C600BC
:10E970008091C00086FFFCCF8091C00080648093AE
:10E98000C000A0E2A093C6008091C00086FFFCCF2B
:10E990008091C00080648093C000983409F4D7C18E
:10E9A0009934B8F4923409F459C1933458F490333B
:10E9B00019F1903308F4E3C59F33A1F1903409F0C5
:10E9C000DEC5BDC0953409F470C1963409F0D7C5D1
:10E9D00098C1923509F42BC2933538F49C3409F46C
:10E9E000F5C1913509F0CBC518C2963509F445C279
:10E9F000993509F0C4C567C483E792EE62E00F94CD
:10EA0000F5F110920602109207021092080210927D
:10EA1000090210920A0210920B0210920C0210923C
:10EA20000D0213C18FE792EE62E00F94F5F18FEEC5
:10EA300090EE60E00F94F5F181E291EE60E00F94CA
:10EA4000C2F187EB91EE60E00F94F5F180E391EE77
:10EA500060E00F94C2F184EE90EE60E00F94F5F167
:10EA60008FE391EE60E00F94C2F186E090E061E008
:10EA700070E00F9434F20F94DCF18DE591EE60E0DC
:10EA80000F94C2F189EC91EE60E00F94F5F18EE401
:10EA900091EE60E00F94C2F183EC91EE60E00F9490
:10EAA000F5F18CE691EE60E00F94C2F18EE10F94E7
:10EAB0000DF288E90F940DF281E00F940DF20F949E
:10EAC000DCF18BE791EE60E00F94C2F119E0E0E039
:10EAD000F0E010935700E4918E2F0F940DF20F94F5
:10EAE000DCF18AE891EE60E00F94C2F1E3E0F0E03F
:10EAF00010935700E4918E2F0F940DF20F94DCF1D8
:10EB000089E991EE60E00F94C2F1E2E0F0E0109349
:10EB10005700E4918E2F0F940DF20F94DCF188EAE8
:10EB200091EE60E00F94C2F1E1E0F0E01093570045
:10EB30001491812F0F940DF20F94DCF107CF8BE825
:10EB400092EE62E00F94F5F18BE492EE60E00F94A8
:10EB5000F5F10F94DCF100E010E019C0C8016F2D51
:10EB60000F947FFEFF2031F489E492EE60E00F9471
:10EB7000C2F10BC0F092C6008091C00086FFFCCFAE
:10EB80008091C00080648093C0000F5F1F4FC80158
:10EB900081519F41A0E0B0E0ABBFFC01F790BAE229
:10EBA000FB1621F0E2E000301E07C1F60F94DCF105
:10EBB0000F94DCF187E592EE60E00F94F5F10F948D
:10EBC000DCF1CC24DD2400E010E01EC0C8010F946D
:10EBD00077FEF82E882331F489E492EE60E00F94FA
:10EBE000C2F10BC08093C6008091C00086FFFCCFAD
:10EBF0008091C00080648093C000FE1419F00894D6
:10EC0000C11CD11C0F5F1F4FC80181519F41A0E063
:10EC1000B0E0ABBFFC01E790FAE2EF1621F022E092
:10EC20000030120799F60F94DCF10F94DCF182E6C4
:10EC300092EE60E00F94C2F1C60161E070E00F94C3
:10EC400034F20F94DCF10F94DCF110920202109276
:10EC50000302109204021092050278CE89E992EE26
:10EC600062E00F94F5F1279A2F9A16C02F9880E052
:10EC700090E0E0EDF7E03197F1F7019684369105E9
:10EC8000C1F72F9A80E090E0E0EDF7E03197F1F7DF
:10EC9000019684369105C1F78091C00087FFE6CFC9
:10ECA0008091C00087FFFCCF64C485EA92EE62E0E9
:10ECB0000F94F5F140910202509103026091040219
:10ECC0007091050281E020E10F9491F2809102029F
:10ECD00090910302A0910402B091050280509F4FD1
:10ECE000AF4FBF4F8093020290930302A0930402A0
:10ECF000B093050280509041A040B04008F426CE69
:10ED0000A4CF83EB92EE62E00F94F5F140910602FE
:10ED100050910702609108027091090280E020E1A1
:10ED20000F9491F28091060290910702A09108023F
:10ED3000B091090280509F4FAF4FBF4F80930602A2
:10ED400090930702A0930802B0930902FFCD80ECD4
:10ED500092EE62E00F94F5F183E792EE60E00F949B
:10ED6000F5F18FE792EE60E00F94F5F18BE892EE0B
:10ED700060E00F94F5F189E992EE60E00F94F5F10F
:10ED800085EA92EE60E00F94F5F183EB92EE60E09D
:10ED90000F94F5F180EC92EE60E00F94F5F187ECC2
:10EDA00092EE60E00F94F5F188ED92EE60E00F9442
:10EDB000F5F18FED92EE60E00F94F5F18AEE92EEB0
:10EDC00060E00F94F5F183E093EEBDCD87EC92EE19
:10EDD00062E00F94F5F181E40F947BF282E40F94EA
:10EDE0007BF283E40F947BF284E40F947BF285E45E
:10EDF0000F947BF286E40F947BF287E40F947BF20E
:10EE000088E40F947BF28AE40F947BF28BE40F94F6
:10EE10007BF28CE40F947BF299CD88ED92EE62E068
:10EE20000F94F5F1772473948824992409C48FED05
:10EE300092EE62E00F94F5F140910A0250910B02BC
:10EE400060910C0270910D0282E020E10F9491F22A
:10EE500080910A0290910B02A0910C02B0910D02D8
:10EE600080509F4FAF4FBF4F80930A0290930B0289
:10EE7000A0930C02B0930D0269CD8AEE92EE62E08F
:10EE80000F94F5F184EE90EE60E00F94F5F18FECC5
:10EE900091EE60E00F94F5F1662477244301CC5D98
:10EEA000DE4F19821882C452D140D401C301B695F5
:10EEB000A79597958795CA5DDE4F88839983AA8326
:10EEC000BB83C652D140CC5DDE4FA881B981C4520C
:10EED000D1401196CC5DDE4FB983A883C452D14096
:10EEE000CD0162E070E00F9434F2B0E2B093C6005E
:10EEF0008091C00086FFFCCF8091C0008064809329
:10EF0000C000EDE2E093C6008091C00086FFFCCF18
:10EF10008091C00080648093C000F0E2F093C6004E
:10EF20008091C00086FFFCCF8091C00080648093F8
:10EF3000C000CA5DDE4FE880F9800A811B81C6529D
:10EF4000D140BB27A12F902F8F2D0F940DF2CA5DBA
:10EF5000DE4F8881C652D1400F940DF2B0E2FB2EF5
:10EF6000F092C6008091C00086FFFCCF8091C00067
:10EF700080648093C0000DE30093C6008091C000C0
:10EF800086FFFCCF8091C00080648093C00010E2B7
:10EF90001093C6008091C00086FFFCCF8091C00016
:10EFA00080648093C0008BBEF3012791C65DDE4F65
:10EFB0002883CA52D140A22EBB24CC24DD2408943D
:10EFC000611C711C811C911C8BBEF3018791282E42
:10EFD0003324442455240894611C711C811C911C09
:10EFE0008BBEF3013791C55DDE4F3883CB52D140E4
:10EFF0000894611C711C811C911C8BBEF30147910C
:10F00000C45DDE4F4883CC52D140ADEFEA2EAFEF66
:10F01000FA2EAFEF0A2FAFEF1A2F6E0C7F1C801E57
:10F02000911E142D032DF22CEE24EA0CFB1C0C1D5A
:10F030001D1D0F940DF220E22093C6008091C000A8
:10F0400086FFFCCF8091C00080648093C000C65DC5
:10F05000DE4F8881CA52D1400F940DF230E23093D6
:10F06000C6008091C00086FFFCCF8091C000806404
:10F070008093C000C45DDE4F8881CC52D1400F9494
:10F080000DF240E24093C6008091C00086FFFCCFA5
:10F090008091C00080648093C000C55DDE4F888190
:10F0A000CB52D1400F940DF250E25093C6008091A4
:10F0B000C00086FFFCCF8091C00080648093C000B8
:10F0C0008FEFE8168FEFF80680E0080780E018075A
:10F0D00031F484E092EE60E00F94C2F1DFC0D80119
:10F0E000C7018070907CA070B0708050904CA040A0
:10F0F000B040D1F52FEF3FE340E050E0E222F322B1
:10F1000004231523CA5DDE4FA880B980CA80DB8046
:10F11000C652D140AE0CBF1CC01ED11EAA0CBB1CD7
:10F12000CC1CDD1C8EE092EE60E00F94C2F1BB2798
:10F13000A12F902F8F2D0F940DF28E2D0F940DF285
:10F1400030E23093C6008091C00086FFFCCF8091F2
:10F15000C00080648093C0004EE34093C60080915D
:10F16000C00086FFFCCF87C08EE09EEFA0E0B0E03D
:10F17000E822F9220A231B239CE0E91694E9F90608
:10F1800090E0090790E0190709F088C0C45DDE4FE0
:10F19000A881CC52D140EA2EFF2400E010E0102FCD
:10F1A0000F2DFE2CEE24C55DDE4FB881CB52D14031
:10F1B000EB0EF11C011D111DD601C501817090706F
:10F1C000A070B070DC0199278827E80EF91E0A1F8D
:10F1D0001B1F20EF30E040E050E0A222B322C42207
:10F1E000D52241E1AA0CBB1CCC1CDD1C4A95D1F7F1
:10F1F000EA0CFB1C0C1D1D1D81E090E0A0E0B0E0BE
:10F20000282239224A225B2235E1220C331C441C7D
:10F21000551C3A95D1F7E20CF31C041D151D57013E
:10F220006801AA0CBB1CCC1CDD1C85E192EE60E0E1
:10F230000F94C2F1C801AA27BB270F940DF2BB2778
:10F24000A12F902F8F2D0F940DF28E2D0F940DF274
:10F2500090E29093C6008091C00086FFFCCF809121
:10F26000C00080648093C000AEE3A093C60080918C
:10F27000C00086FFFCCF8091C00080648093C000F6
:10F28000C601AA27BB270F940DF2BB27AD2D9C2DDD
:10F290008B2D0F940DF28A2D0F940DF20F94DCF14B
:10F2A000CC5DDE4FE881F981C452D140F99709F471
:10F2B0004DCBF4E0EF2EF12C012D112D6E0C7F1CA7
:10F2C000801E911EF2CD83E093EE62E00F94F5F183
:10F2D0008AE192EE60E00F94C2F18091C00087FF56
:10F2E000FCCF1091C6001F751093C6008091C0001E
:10F2F00086FFFCCF8091C00080648093C0000F9493
:10F30000DCF1812F81548A3108F036C1163409F4BA
:10F3100095C0173490F4133409F44EC0143430F40B
:10F320001134F1F0123409F01DC130C0143409F465
:10F3300059C0153409F016C16BC01A3409F4C4C0A1
:10F340001B3438F4173409F48FC0183409F00AC19B
:10F35000A1C01B3409F4D2C01C3409F003C1E8C0B9
:10F360008FEF81B90DC082B1809582B980E090E0C5
:10F37000E0EDF7E03197F1F70196883C9105C1F790
:10F380008091C00087FFEFCF12B8EFC08FEF84B934
:10F390000DC085B1809585B980E090E0E0EDF7E0A3
:10F3A0003197F1F70196883C9105C1F78091C00033
:10F3B00087FFEFCF15B8D9C08FEF87B90DC088B1DF
:10F3C000809588B980E090E0E0EDF7E03197F1F7C3
:10F3D0000196883C9105C1F78091C00087FFEFCF6F
:10F3E00018B8C3C08FEF8AB90DC08BB180958BB9A7
:10F3F00080E090E0E0EDF7E03197F1F70196883C8E
:10F400009105C1F78091C00087FFEFCF1BB8ADC059
:10F410008FEF8DB90DC08EB180958EB980E090E0F0
:10F42000E0EDF7E03197F1F70196883C9105C1F7DF
:10F430008091C00087FFEFCF1EB897C08FEF80BBD1
:10F440000DC081B3809581BB80E090E0E0EDF7E0F6
:10F450003197F1F70196883C9105C1F78091C00082
:10F4600087FFEFCF11BA81C08FEF83BB0DC084B38C
:10F47000809584BB80E090E0E0EDF7E03197F1F714
:10F480000196883C9105C1F78091C00087FFEFCFBE
:10F4900014BA6BC08FEF809301010FC080910201FD
:10F4A00080958093020180E090E0E0EDF7E03197F5
:10F4B000F1F70196883C9105C1F78091C00087FF64
:10F4C000EDCF1092020151C08FEF809304010FC065
:10F4D0008091050180958093050180E090E0E0ED4A
:10F4E000F7E03197F1F70196883C9105C1F78091DB
:10F4F000C00087FFEDCF1092050137C08FEF8093DA
:10F5000007010FC08091080180958093080180E079
:10F5100090E0E0EDF7E03197F1F70196883C910536
:10F52000C1F78091C00087FFEDCF109208011DC088
:10F530008FEF80930A010FC080910B01809580931B
:10F540000B0180E090E0E0EDF7E03197F1F70196F4
:10F55000883C9105C1F78091C00087FFEDCF1092E4
:10F560000B0103C085E292EEEEC98091C00087FFD7
:10F57000FCCF8091C600EAC988E392EEE4C98CE131
:10F5800091EEE1C988249924933011F1943028F444
:10F59000913089F09230B8F408C0953061F195301F
:10F5A000F0F0963009F048C043C02B3109F042C951
:10F5B00091E06BE13FC96227C15DDE4F2883CF52E6
:10F5C000D14092E037C9B22FA0E0622793E032C960
:10F5D000822F90E0A82BB92B622794E02BC92E3004
:10F5E00009F039C3622795E0C05DDE4F19821882A9
:10F5F000C053D1401FC9E1E0F0E0EC0FFD1FC05D3A
:10F60000DE4F08811981C053D140E00FF11F2083E4
:10F610000F5F1F4FC05DDE4F19830883C053D14079
:10F6200062270A171B0709F005C9D80196E002C92D
:10F63000261709F010C303C0973009F0FBC87724E0
:10F640009981933109F412C19431C8F4963009F4C8
:10F65000D8C0973050F4923009F406C1933009F4C1
:10F660006DC0913009F059C253C0913109F477C08F
:10F67000923108F0BBC0903109F04FC2F5C098310B
:10F6800009F487C0993150F4953109F4EFC09531F0
:10F6900008F4C6C1963109F040C2C2C19A3109F4DA
:10F6A0006CC09A3108F491C09B3109F45BC09D3164
:10F6B00009F033C29D81903359F48F81882311F46E
:10F6C0009EE11CC0813011F091E018C098E916C08D
:10F6D000892F807591F0903539F4E0E0F0E089E011
:10F6E0008093570094910AC0983539F4E3E0F0E034
:10F6F00089E080935700949101C090E01A821B82A8
:10F700008D818C831D829E831F8227E030E009C299
:10F710001A8288E08B8381E48C8386E58D8382E581
:10F720008E8389E48F8383E5888780E589878FE5E9
:10F730008A8782E38B872BE030E0F3C18A818139AD
:10F7400041F0823941F0803911F48FE005C080E04A
:10F7500003C082E001C08AE01A828B8344C0772410
:10F76000739482C08D81882311F48EE12CC0813086
:10F7700011F081E028C088E926C01A82E1E0F0E0BB
:10F7800089E08093570084918B831C8224E030E0D1
:10F79000C8C18B81803589F48C81883039F4E2E0EE
:10F7A000F0E089E08093570084910DC0E0E0F0E044
:10F7B00089E080935700849106C0E3E0F0E089E09F
:10F7C0008093570084911A82DFCF8D81836C99E0FA
:10F7D000E1E0F0E0082E90935700E89507B600FCB2
:10F7E000FDCF1A821B8223E030E09BC180EC8A832C
:10F7F000CE5CDE4F188219821A821B82C253D1401E
:10F800008EC18A8190E0A0E0B0E0582F44273327D2
:10F8100022278B8190E0A0E0B0E0DC0199278827C7
:10F82000282B392B4A2B5B2B8D8190E0A0E0B0E098
:10F83000282B392B4A2B5B2B8C8190E0A0E0B0E089
:10F84000BA2FA92F982F8827282B392B4A2B5B2BCF
:10F85000220F331F441F551FC05EDE4F288339839C
:10F860004A835B83C052D1401A8259C13A81C95C34
:10F87000DE4F3883C753D140CA5CDE4F1882C6536F
:10F88000D1408B81C82EDD24CA5CDE4F488159816E
:10F89000C653D140C42AD52A933109F082C0CE5C28
:10F8A000DE4F88819981AA81BB81C253D1408050AB
:10F8B000904CA340B04030F583E0CE5CDE4FE88052
:10F8C000F9800A811B81C253D140F70100935B008C
:10F8D00080935700E89507B600FCFDCFCE5CDE4F65
:10F8E000088119812A813B81C253D14000501F4FAA
:10F8F0002F4F3F4FCE5CDE4F088319832A833B8313
:10F90000C253D140C05EDE4F488159816A817B81FC
:10F91000C052D140DE011B9631E08C9111962C91A2
:10F9200011971296C75CDE4F2883C953D140C85C3B
:10F93000DE4F1882C853D14090E0C85CDE4FE881AA
:10F94000F981C853D1408E2B9F2B0C01FA01609393
:10F950005B0030935700E89511244E5F5F4F6F4F67
:10F960007F4F0EEFE02E0FEFF02ECE0CDF1CC114F8
:10F97000D10499F685E0C05EDE4F088119812A81A5
:10F980003B81C052D140F80120935B008093570027
:10F99000E89507B600FCFDCF81E180935700E8951C
:10F9A00035C0C05EDE4F88819981AA81BB81C0527B
:10F9B000D140B695A795979587957C018601ABE0D8
:10F9C000AA2EB12CAC0EBD1E0BC0D5016D915D01F0
:10F9D000C7010F947FFE0894E11CF11C01501040F8
:10F9E0000115110591F7A60160E070E0440F551F65
:10F9F000661F771FC05EDE4FE880F9800A811B8199
:10FA0000C052D1404E0D5F1D601F711F1A82C05E33
:10FA1000DE4F488359836A837B83C052D1407FC0C5
:10FA2000FA80C55CDE4FF882CB53D140C65CDE4F16
:10FA30001882CA53D1408B81C82EDD24C65CDE4FAC
:10FA400008811981CA53D140C02AD12A1A828981DA
:10FA5000BE016D5F7F4F843121F59601C05EDE4FA0
:10FA6000E880F9800A811B81C052D1400BBFF701A9
:10FA700087919691DB018C9311969C936E5F7F4FDB
:10FA8000D801C7010296A11DB11DC05EDE4F88835B
:10FA90009983AA83BB83C052D14022503040F1F6F3
:10FAA00036C0C05EDE4F288139814A815B81C052F9
:10FAB000D1400894C108D108760100E010E0089414
:10FAC000C11CD11C0894E11CF11C011D111DE20E8A
:10FAD000F31E041F151F21BDBB27A52F942F832FB5
:10FAE00082BD2F5F3F4F4F4F5F4FF89A80B5DB01CC
:10FAF0008D93BD012E153F054007510761F7C05E8C
:10FB0000DE4F288339834A835B83C052D1409601FC
:10FB10002D5F3F4FFB01108204C080EC8A8322E0FE
:10FB200030E08BE18093C6008091C00086FFFCCF5F
:10FB30008091C00080648093C000C15DDE4FF88179
:10FB4000CF52D140F093C6008091C00086FFFCCF19
:10FB50008091C00080648093C000432F3093C60022
:10FB60008091C00086FFFCCF8091C00080648093AC
:10FB7000C000922F2093C6008091C00086FFFCCF6A
:10FB80008091C00080648093C0008EE08093C600A6
:10FB90008091C00086FFFCCF8091C000806480937C
:10FBA000C00065E1C15DDE4FE880CF52D1406E25D7
:10FBB00069276427FE01319610C090819093C6009A
:10FBC0008091C00086FFFCCF31968091C000806498
:10FBD0008093C0006927215030402115310569F715
:10FBE0006093C6008091C00086FFFCCF8091C0006A
:10FBF00080648093C00085B1805885B9772081F4F6
:10FC0000C15DDE4F0881CF52D1400F5FC15DDE4F35
:10FC10000883CF52D14090E0A0E0B0E00D941AF4F8
:10FC200027982F9880E090E020ED37E0F901319798
:10FC3000F1F7019684369105C9F700008091C00064
:10FC40008D7F8093C00081E180935700E895EE2777
:10FC5000FF270994FFCF90E00D941AF497FB092E2B
:10FC600007260AD077FD04D02ED006D000201AF443
:10FC7000709561957F4F0895F6F7909581959F4F08
:10FC80000895A1E21A2EAA1BBB1BFD010DC0AA1FDD
:10FC9000BB1FEE1FFF1FA217B307E407F50720F0F5
:10FCA000A21BB30BE40BF50B661F771F881F991F70
:10FCB0001A9469F760957095809590959B01AC01B9
:10FCC000BD01CF010895AA1BBB1B51E107C0AA1FAC
:10FCD000BB1FA617B70710F0A61BB70B881F991FED
:10FCE0005A95A9F780959095BC01CD010895F99991
:10FCF000FECF92BD81BDF89A992780B50895262F31
:10FD0000F999FECF1FBA92BD81BD20BD0FB6F89400
:0EFD1000FA9AF99A0FBE01960895F894FFCF63
:00000001FF
