:100000000C943C010C946D010C946D010C946D01E9
:100010000C946D010C946D010C946D010C946D01A8
:100020000C946D010C946D010C946D010C946D0198
:100030000C946D010C9472080C946D010C946D017C
:100040000C946D010C946D010C946D010C946D0178
:100050000C946D010C946D010C946D010C942808A6
:100060000C946D010C949B090C9471090C946D0116
:100070000C946D010C946D010C946D010C946D0148
:100080000C946D010C946D010C946D010C946D0138
:100090000C943B090C9411090C946D010C946D01A6
:1000A0000C946D010C946D010C946D010C946D0118
:1000B0000C946D010C946D010C946D010C946D0108
:1000C0000C946D010C946D010C946D010C946D01F8
:1000D0000C946D010C946D010C946D010C946D01E8
:1000E0000C946D010C9438020C9434020C9454025C
:1000F0000C9424020C9463040C9471040C94030279
:100100000C942E020C944D050C9400050C944F0495
:100110000C94FE010C94160A0C9450020C94A30645
:100120000C942A020C9415020C9440040C941D02A9
:100130000C9442020C9446020C944A020C94210244
:100140000C944E050C9413040C943C020C9419026C
:100150000C94B3040200002100240027002A002D83
:10016000003000330001010000040107010A010012
:10017000002200250028002B002E00310034000250
:10018000010000050108010B0100000A0B02090C27
:100190000D0E08070304010000000000000000002D
:1001A000000000000000000000000000000000004F
:1001B000000000000012111000000000000000000C
:1001C000000000000000000000000000000000002F
:1001D0000020002300260029002C002F0032000000
:1001E00001000003010601090105050505070508D1
:1001F000080808020202020A0A08080404040401AA
:1002000001010101010101030303030303030304CB
:100210000707070C0C0C0C0C0C0C0C02020202065B
:10022000060606060606060B0B0B0B0B0B0B0B014B
:1002300002102020080810204010204080020102F7
:1002400001080402010102040810204080804020BF
:1002500010080402018004020180402010080402FA
:100260000108040201010204081020408001020478
:10027000081020408000160A11241FBECFEFD1E2E3
:10028000DEBFCDBF00E00CBF13E0A0E0B2E0E8EDC0
:10029000F5E200E00BBF02C007900D92A832B10753
:1002A000D9F724E0A8E2B3E001C01D92A03CB20758
:1002B000E1F711E0CCE3D1E000E006C021970109AD
:1002C000802FFE010E94E212CB33D10780E00807A5
:1002D000A9F70E94A70A0C94EA120C940000FC01F2
:1002E000A089B18982E08C93A485B5851C92A685EE
:1002F000B78580E18C93108EA489B58986E08C93B4
:10030000A289B3898C9180618C93A289B3898C91E5
:1003100088608C93A289B3898C9180688C930288C1
:10032000F389E02D80818F7D80830895CF92DF92C5
:10033000EF92FF92CF93DF93B0919C04A0E08111E4
:10034000AB2F80919D0490E0880F991FAC01415321
:100350005E4FC090A204D090A304E090A404F0905B
:10036000A50430E020E0FA01C591D491E881B901FB
:1003700090E080E0EB23EA130AC02F5F3F4F6C153B
:100380007D058E059F0578F36FEF7FEFCB01DF9141
:10039000CF91FF90EF90DF90CF900895282F30E01D
:1003A000F901E757FE4F9491F901E15DFD4F44914A
:1003B00027513E4FF9012491222309F435C0992396
:1003C00011F191509231F8F4E92FF0E08827E451CF
:1003D000FE4F8F4F0C94E2121D022102FE01150206
:1003E0001902030224022A022E02340238023C02BD
:1003F0004202460203024A025002540280918000E7
:100400008F7780938000E22FF0E0EE0FFF1FE1591D
:10041000FE4FA591B4918FB7F894EC91611148C04B
:1004200040954E234C938FBF0895809180008F7D1F
:10043000E8CF80918000877FE4CF84B58F7784BD3B
:10044000E2CF84B58F7DFBCF8091B0008F77809312
:10045000B000D9CF8091B0008F7DF9CF809190000E
:100460008F7780939000CFCF809190008F7DF9CFD0
:1004700080919000877FF5CF8091A0008F77809347
:10048000A000C1CF8091A0008F7DF9CF8091A00006
:10049000877FF5CF809120018F7780932001B3CFA4
:1004A000809120018F7DF9CF80912001877FF5CF4A
:1004B0004E2BB8CFCF93DF9390E0FC01E15DFD4F71
:1004C000249187519E4FFC0184918823C9F090E0CC
:1004D000880F991FFC01EB5AFE4FA591B491FC01C6
:1004E000E159FE4FC591D49161110DC09FB7F894A9
:1004F0008C91209582238C938881282328839FBF09
:10050000DF91CF910895623051F49FB7F8943C91F8
:10051000822F809583238C93E8812E2BEFCF8FB78A
:10052000F894EC912E2B2C938FBFEACF90917B0007
:10053000977F90937B008653806480937C008091AA
:100540007A00806480937A0080917A0086FDFCCFE7
:10055000809178009091790008953FB7F894809148
:10056000530390915403A0915503B091560326B5BF
:10057000A89B05C02F3F19F00196A11DB11D3FBFDB
:10058000BA2FA92F982F8827BC01CD01620F711DAA
:10059000811D911D42E0660F771F881F991F4A95A4
:1005A000D1F708958F929F92AF92BF92CF92DF9230
:1005B000EF92FF924B015C010E94AD026B017C0146
:1005C0000E94AD026C197D098E099F09683E734037
:1005D00081059105A8F321E0821A9108A108B108CC
:1005E00088EEC80E83E0D81EE11CF11C8114910432
:1005F000A104B10429F7FF90EF90DF90CF90BF9056
:10060000AF909F908F900895CF92DF92EF92FF92DC
:100610000F931F93CF93DF93CDB7DEB7C054D14074
:100620000FB6F894DEBF0FBECDBF2FB7F894809100
:10063000570390915803A0915903B0915A032FBFCB
:1006400040919E0450919F046091A0047091A10478
:100650008C019D01041B150B260B370BB901A8015A
:10066000403D57406105710590F48091A604C05C3F
:10067000DE4F0FB6F894DEBF0FBECDBFDF91CF9136
:100680001F910F91FF90EF90DF90CF90089580938E
:100690009E0490939F04A093A004B093A104109291
:1006A0009904109298041092970410929604109254
:1006B000950462E080919A040E945A0261E070E021
:1006C00080E090E00E94D20261E080919A040E9452
:1006D0005A0260E080919A040E94CE0180919B04AE
:1006E0008551823020F58BE291E10197F1F762E0CC
:1006F00080919A040E945A028091A70490E082306F
:10070000910538F0880F991F880F991F0597019759
:10071000F1F7F89480E00E9496016F3F7F4F8F4F72
:100720009F4F61F41092A604789480E0A0CF64E11A
:1007300070E080E090E00E94D202D9CF81E00E9478
:1007400096016F3F7F4F8F4F9F4F61F38E010F5F79
:100750001F4F6E018FEBC81A8EEFD80A780180E028
:100760000E949601F701608371838283938381E005
:100770000E949601F7016483758386839783F8E06E
:10078000EF0EF11CEC14FD0451F7789430E020E0FA
:10079000F801C080D180E280F38044815581668178
:1007A0007781FFEFCF16DF06EF06FF0631F04F3FF0
:1007B0008FEF58076807780719F41092A604B5CF91
:1007C000F90183E0F595E7958A95E1F7EB56FB4F44
:1007D0008081880FC416D506E606F70610F18083DF
:1007E0002F5F3F4F085F1F4F2832310589F6409138
:1007F00099042091950480919604280F3327331F84
:1008000080919704280F311D80919804820F932FB7
:10081000911D99274817190681F681E08093A60457
:1008200026CF8160DCCFAF92BF92CF92DF92EF9262
:10083000FF920F931F93CF93DF936C017B018B018A
:10084000040F151FEB015E01AE18BF08C017D107DA
:1008500059F06991D601ED91FC910190F081E02D64
:10086000C6011995892B79F7C501DF91CF911F91A9
:100870000F91FF90EF90DF90CF90BF90AF900895D1
:10088000FC01538D448D252F30E0842F90E0821B96
:10089000930B541710F0CF96089501970895FC011B
:1008A000918D828D981761F0A28DAE0FBF2FB11D73
:1008B0005D968C91928D9F5F9F73928F90E00895CB
:1008C0008FEF9FEF0895FC01918D828D981731F085
:1008D000828DE80FF11D858D90E008958FEF9FEFD9
:1008E0000895FC01918D228D892F90E0805C9F4FAF
:1008F000821B91098F73992708958BE593E00E94DD
:10090000710421E0892B09F420E0822F089588EFFB
:1009100093E00E94710421E0892B09F420E0822FEA
:100920000895FC01A48DA80FB92FB11DA35ABF4F84
:100930002C91848D90E001968F739927848FA689DE
:10094000B7892C93A089B1898C91837080648C9332
:10095000938D848D981306C00288F389E02D8081E1
:100960008F7D80830895EF92FF920F931F93CF9313
:10097000DF93EC0181E0888F9B8D8C8D98131AC0DA
:10098000E889F989808185FF15C09FB7F894EE89C1
:10099000FF896083E889F98980818370806480831E
:1009A0009FBF81E090E0DF91CF911F910F91FF9069
:1009B000EF900895F62E0B8D10E00F5F1F4F0F7311
:1009C0001127E02E8C8D8E110CC00FB607FCFACFCC
:1009D000E889F989808185FFF5CFCE010E949104D5
:1009E000F1CFEB8DEC0FFD2FF11DE35AFF4FF0829D
:1009F0009FB7F8940B8FEA89FB8980818062CFCF03
:100A0000CF93DF93EC01888D8823B9F0AA89BB8945
:100A1000E889F9898C9185FD03C0808186FD0DC030
:100A20000FB607FCF7CF8C9185FFF2CF808185FF51
:100A3000EDCFCE010E949104E9CFDF91CF910895CF
:100A400080E090E0892B29F00E94870481110E94A8
:100A5000000080E090E0892B29F00E947D04811144
:100A60000E94000080E090E0892B49F080E090E057
:100A7000892B29F00E94000081110E94000080E073
:100A800090E0892B49F080E090E0892B29F00E94CA
:100A9000000081110C9400000895089590E080E01A
:100AA000089560E088E20E94CE0160E089E20E9441
:100AB000CE0160E08AE20E94CE0160E08BE20C94FD
:100AC000CE01CF93DF93EC0160E08E810E94CE01D6
:100AD00061E08E810E94CE0160E08E810E94CE0195
:100AE0008BE891E00197F1F7DF91CF910895CF92D4
:100AF000DF92EF92FF920F931F93CF93DF936C01DE
:100B00007C0187E0E80EF11CD0E0C0E0062F10E089
:100B1000B8010C2E02C0759567950A94E2F76170D2
:100B2000F70181917F010E94CE012196C430D10549
:100B300079F7C601DF91CF911F910F91FF90EF9050
:100B4000DF90CF900C946105CF92DF92EF92FF92ED
:100B50000F931F93CF93DF93EC01F62E642F8C81BC
:100B60000E94CE018D818F3F19F060E00E94CE017E
:100B70000F2D10E08F8584FF25C06E0187E0C80E21
:100B8000D11CF12CE12CB8010E2C02C07595679593
:100B90000A94E2F76170F60181916F010E94CE0123
:100BA000FFEFEF1AFF0A88E0E816F10461F7CE01C3
:100BB000DF91CF911F910F91FF90EF90DF90CF9039
:100BC0000C946105B80184E0759567958A95E1F705
:100BD000CE010E9477056F2DCE01DF91CF911F913D
:100BE0000F91FF90EF90DF90CF900C94770540E04D
:100BF000682F88EA94E00C94A405CF93DF938230A9
:100C000029F49091B70498609093B7048093BB0443
:100C10001092BC0480E48093BD0480E18093BE0404
:100C200080E58093BF0461E08091AC040E945A0289
:100C30008091AD048F3F19F061E00E945A0261E09B
:100C40008091AE040E945A02C8EAD4E09E01285A5C
:100C500034408091B70484FD0BC084E090E021967D
:100C60002817390744F461E08E810E945A02EECFC2
:100C700088E090E0F4CF8BE39DE00197F1F760E02E
:100C80008091AC040E94CE0160E08091AE040E948D
:100C9000CE018091AD048F3F19F060E00E94CE013B
:100CA0008091B70484FD39C063E088EA94E00E9433
:100CB0007705CBE4D6E4CE010197F1F763E088EA4B
:100CC00094E00E9477052197F1F763E088EA94E0C9
:100CD0000E94770583E592E00197F1F762E088EAE8
:100CE00094E00E9477058091B70480620E94F70526
:100CF00084E08093B8048CE00E94F70581E00E94B4
:100D0000F7058BE39FE10197F1F782E08093B90447
:100D100086E0DF91CF910C94F70580620E94F70581
:100D20008BE496E40197F1F78091B70480620E940A
:100D3000F70583E592E00197F1F78091B7048062AF
:100D40000E94F705D0CF41E00E94A40581E090E029
:100D50000895FB0101900020E9F73197AF01461B90
:100D6000570BDC01ED91FC910280F381E02D199489
:100D70008F929F92AF92BF92EF92FF920F931F9329
:100D8000CF93DF93CDB7DEB7A1970FB6F894DEBF50
:100D90000FBECDBF7C01FA01CB0119A2223008F4AD
:100DA0002AE08E010F5D1F4F822E912CB12CA12CB9
:100DB000BF01A50194010E94C012F901CA016A3065
:100DC0000CF5605DD8016E938D01232B242B252B10
:100DD00079F790E080E0109721F0BD01C7010E94F3
:100DE000A906A1960FB6F894DEBF0FBECDBFDF9166
:100DF000CF911F910F91FF90EF90BF90AF909F9078
:100E00008F900895695CDECFCF92DF92EF92FF92D0
:100E10000F931F93CF93DF936B01770FEE08FF08BB
:100E2000F7FE1FC0EC01E881F9810190F081E02D0F
:100E30006DE219958C0144275527BA014C195D09BB
:100E40006E097F092AE0CE010E94B806800F911F2B
:100E5000DF91CF911F910F91FF90EF90DF90CF9096
:100E600008952AE0B701A601DF91CF911F910F915C
:100E7000FF90EF90DF90CF900C94B8064F925F9266
:100E80006F927F928F929F92AF92BF92CF92DF929A
:100E9000EF92FF920F931F93CF936B017C01742EFF
:100EA000AC019B010E94BB1261E372E0811126C07C
:100EB00046015701E894B7F82FEF3FEF4FE75FE7A0
:100EC000C501B4010E94BB1281110CC02FEF3FEF8E
:100ED0004FE75FE7C501B4010E94EA1065E372E0E5
:100EE000181664F02FEF3FEF4FE75FE4C701B6013C
:100EF0000E9449121816ACF469E372E088EF93E09F
:100F0000CF911F910F91FF90EF90DF90CF90BF9006
:100F1000AF909F908F907F906F905F904F900C94C8
:100F2000A9062FEF3FEF4FE75FECC701B6010E9424
:100F3000EA1087FDE1CF20E030E0A901C701B6014A
:100F40000E94EA1010E000E087FF0AC06DE288EF1F
:100F500093E00E94B3048C01F7FAF094F7F8F09450
:100F6000C0E060E070E080E09FE37C1641F020E0AC
:100F700030E040E251E40E94EF10CF5FF6CFA701CE
:100F800096010E947E102B013C010E9468114B01CA
:100F90005C012AE0BC01A40188EF93E00E94B8063E
:100FA0007C01E00EF11ECC23D1F1C501B4010E94F9
:100FB00097119B01AC01C301B2010E947D104B014E
:100FC0005C016EE288EF93E00E94B304E80EF91E24
:100FD000C15028F120E030E040E251E4C501B40105
:100FE0000E944E122B013C010E9468114B01B12C52
:100FF000A12C2AE0B501A40188EF93E00E94B80675
:10100000E80EF91EC501B4010E9497119B01AC01C5
:10101000C301B2010E947D104B015C01D9CFC70111
:10102000CF911F910F91FF90EF90DF90CF90BF90E5
:10103000AF909F908F907F906F905F904F900895AA
:101040006115710511F00C94A90690E080E00895F7
:101050001F920F920FB60F9211242F933F938F93ED
:101060009F93AF93BF938091570390915803A091A2
:101070005903B0915A033091520323E0230F2D37C7
:1010800058F50196A11DB11D20935203809357037B
:1010900090935803A0935903B0935A03809153033C
:1010A00090915403A0915503B09156030196A11D50
:1010B000B11D8093530390935403A0935503B093B1
:1010C0005603BF91AF919F918F913F912F910F90B8
:1010D0000FBE0F901F90189526E8230F0296A11DB2
:1010E000B11DD2CF1F920F920FB60F9211240BB6E3
:1010F0000F922F933F934F935F936F937F938F93B1
:101100009F93AF93BF93EF93FF9380913C03909194
:101110003D03A0913E03B0913F03892B8A2B8B2B7B
:10112000E1F190912B03E0912C03F0912D0380814C
:101130008927808380913C0390913D03A0913E03D9
:10114000B0913F03181619061A061B069CF48091ED
:101150003C0390913D03A0913E03B0913F03019762
:10116000A109B10980933C0390933D03A0933E03F2
:10117000B0933F03FF91EF91BF91AF919F918F91FA
:101180007F916F915F914F913F912F910F900BBE87
:101190000F900FBE0F901F90189580910002E4E50C
:1011A000F1E0E4919FEF90930002E230E9F040F427
:1011B000EE2389F0E13091F060E00E94CE01DACFB9
:1011C000E43049F110F1E530B9F7909173009D7F5B
:1011D00090937300F1CF10926E00EECF90916F005C
:1011E0009D7F90936F00E8CF909170009D7F9093CA
:1011F000700091E09093B0009091B100987F94605E
:101200009093B1001092B300D7CF909171009D7F61
:1012100090937100D1CF909172009D7F9093720056
:10122000CBCF1F920F920FB60F9211240BB60F92D5
:101230002F933F934F935F936F937F938F939F93DE
:10124000AF93BF93EF93FF938BE593E00E949104DC
:10125000FF91EF91BF91AF919F918F917F916F918E
:101260005F914F913F912F910F900BBE0F900FBE4A
:101270000F901F9018951F920F920FB60F92112486
:101280000BB60F922F938F939F93EF93FF93E09161
:101290006B03F0916C038081E0917103F091720314
:1012A00082FD1DC09081809174038F5F8F732091A8
:1012B0007503821741F0E0917403F0E0E55AFC4FAA
:1012C000958F80937403FF91EF919F918F912F9150
:1012D0000F900BBE0F900FBE0F901F90189580813E
:1012E000F2CF1F920F920FB60F9211240BB60F92EE
:1012F0002F933F934F935F936F937F938F939F931E
:10130000AF93BF93EF93FF9388EF93E00E94910414
:10131000FF91EF91BF91AF919F918F917F916F91CD
:101320005F914F913F912F910F900BBE0F900FBE89
:101330000F901F9018951F920F920FB60F921124C5
:101340000BB60F922F938F939F93EF93FF93E091A0
:101350000804F09109048081E0910E04F0910F04DB
:1013600082FD1DC09081809111048F5F8F73209149
:101370001204821741F0E0911104F0E0E850FC4FB4
:10138000958F80931104FF91EF919F918F912F91F1
:101390000F900BBE0F900FBE0F901F90189580817D
:1013A000F2CFCF92DF92EF92FF920F931F93E82F2D
:1013B000F92F05C0015011092109310961F190810E
:1013C00096239417B9F305C0015011092109310979
:1013D00011F1908196239413F7CFC12CD12CE12CDD
:1013E000F12C0AC08FEFC81AD80AE80AF80A0C15BF
:1013F0001D052E053F0579F080818623841791F322
:101400006C2D7D2D8E2D9F2D1F910F91FF90EF90B4
:10141000DF90CF90089560E070E080E090E01F9151
:101420000F91FF90EF90DF90CF900895EBE5F3E000
:101430001382128248EE53E060E070E044835583EB
:101440006683778387E192E0918380832DEC30E09F
:10145000358724872CEC30E03787268728EC30E06E
:10146000318B208B29EC30E0338B228B2AEC30E05F
:10147000358B248B2EEC30E0378B268B118E128E21
:10148000138E148EE8EFF3E01382128244835583A7
:10149000668377839183808385EC90E0958784874A
:1014A00084EC90E09787868780EC90E0918B808B2E
:1014B00081EC90E0938B828B82EC90E0958B848B17
:1014C00086EC90E0978B868B118E128E138E148E85
:1014D000E8EAF4E01382128289E292E09183808349
:1014E0008EE184838FEF85838FE1868380E287831B
:1014F00081E2808782E2818783E282871386148675
:1015000015861686178681E00E94FD05A5E9B4E0E0
:1015100088E115968C93159786E116968C9316970D
:10152000E7E4F2E0E4911796EC931797E1E0F2E03C
:10153000E4911896EC93189740E85EE360E070E061
:101540001D964D935D936D937C9350970895CF9323
:10155000DF93CDB7DEB72E970FB6F894DEBF0FBE80
:10156000CDBF789484B5826084BD84B5816084BD2C
:1015700085B5826085BD85B5816085BD80916E0031
:10158000816080936E001092810080918100826062
:10159000809381008091810081608093810080919F
:1015A00080008160809380008091B100846080938E
:1015B000B1008091B00081608093B0008091910073
:1015C000826080939100809191008160809391006E
:1015D000809190008160809390008091A100826052
:1015E0008093A1008091A10081608093A1008091EF
:1015F000A00081608093A00080912101826080938F
:10160000210180912101816080932101809120013D
:1016100081608093200180917A00846080937A00B9
:1016200080917A00826080937A0080917A00816054
:1016300080937A0080917A00806880937A0010927B
:10164000C10061E086E10E945A0260E087E10E94E9
:101650005A0260E089E10E945A0261E086E00E943D
:101660005A028AE0E9E0F2E0DE01119601900D9263
:101670008A95E1F78E010F5F1F4F7E012BE0E20E8E
:10168000F11C61E0D8018D918D010E945A020E1566
:101690001F05B9F70E94510562E080919A040E94EB
:1016A0005A022FB7F8948091570390915803A09154
:1016B0005903B0915A032FBF805D9740A109B1092A
:1016C00080939E0490939F04A093A004B093A104E0
:1016D00087E38093A70482E00E94FD0588EF93E0F2
:1016E0000E946F018BE593E00E946F016BE472E052
:1016F00088EA94E00E9420086CE572E088EF93E0AD
:101700000E94A90661E772E088EF93E00E94A906B3
:10171000B0EB4B2E55245394612C712C1BE5212EDC
:1017200011E1312E2FB7F89480915703909158030F
:10173000A0915903B0915A032FBF40914E0350918D
:101740004F036091500370915103841B950BA60BBE
:10175000B70B883E9340A105B10508F4A7C42FB785
:10176000F8948091570390915803A0915903B09138
:101770005A032FBF80934E0390934F03A0935003BF
:10178000B093510360E086E10E94CE0183E090E0D7
:101790000197F1F761E086E10E94CE0183E290E0DB
:1017A0000197F1F760E086E10E94CE01E6E4F2E005
:1017B0006491E0E0F2E08491E82FF0E0EE0FFF1F8B
:1017C000E153FE4F8591949100E315E720E030E06E
:1017D000462F0E94D1096115710581059105D9F146
:1017E0006F5F7F4F8F4F9F4F9F7061157105810510
:1017F000910589F10E94971128E23EE74CE05DE3F4
:101800000E944E1220E030E040E05FE30E944E1262
:101810006B877C878D879E878B859C85AD85BE85F4
:1018200080934A0390934B03A0934C03B0934D03D2
:101830000E940403882341F080919B048C3009F4BA
:1018400073C090F48B3049F1C12CD12C70ECE72E91
:101850007FE7F72E4CC080E090ECA9E7B4E48B87DB
:101860009C87AD87BE87D8CF8551823068F71091AD
:101870009704612F70E0762F662766277F77809127
:101880009804682B90E080E00E9497112DEC3CECCE
:101890004CEC5DE30E944E1263C06091970470E0CF
:1018A00090E080E00E9497116B017C0110919804F8
:1018B00017FF0AC0AC019B0160E070E080E89FEB7D
:1018C0000E947D106B017C011F70612F70E090E021
:1018D00080E00E9499112DEC3CEC4CEC5DE30E9401
:1018E0004E12A70196010E947E106B017C01C092EE
:1018F0000502D0920602E0920702F09208020E94CE
:101900000403882351F080919B048B3030F08D309C
:1019100080F18551823008F4F4C0812C912C60EC68
:10192000A62E6FE7B62E43C010919704612F70E08A
:1019300090E080E00E9497116B017C016091980417
:101940006F7070E090E080E00E9499112DEC3CEC0B
:101950004CEC5DE30E944E12A70196010E947E109E
:101960006B017C0117FFC3CFF7FAF094F7F8F094FE
:10197000BECF6091960470E090E080E00E949911E3
:101980002DEC3CEC4CEC5DE30E944E124B015C01F3
:101990006091950470E090E080E00E9499119B01B5
:1019A000AC01C501B4010E947E104B015C01809224
:1019B000010290920202A0920302B0920402A701D7
:1019C0009601C701B6010E94BB1211E0811109C046
:1019D000A5019401C501B4010E94BB12811101C08F
:1019E00010E088E30E9496027C0189E30E9496023F
:1019F0006C018AE30E9496025C0120E030E044E33F
:101A000053E46B857C858D859E850E94491201E09B
:101A100018164CF0012F111106C001E094E1C9160F
:101A2000D1040CF000E000934903A4E1EA16F104AC
:101A30000CF479C0111106C011E0B4E1AB16B10489
:101A40000CF010E0109348030E94510561E08CE215
:101A50000E94CE0161E08DE20E94CE01011165C0BD
:101A600061E088E20E94CE0161E08AE20E94CE013C
:101A700011112EC361E089E20E94CE0161E08BE288
:101A80000E94CE0161E060278EE20E94CE01602FAD
:101A90008FE20E94CE01612F80E30E94CE010023DD
:101AA00009F423C361E081E30E94CE01809100022A
:101AB000863009F03FC0E4E5F1E0149117FD98C1CC
:101AC00061E086E00E945A02112309F40AC1123033
:101AD00009F01BC18091B100887F83608093B100C1
:101AE00089E88093B30040923C0350923D0360929A
:101AF0003E0370923F03809170008260809370007B
:101B000077C16091950470919604762767277627B0
:101B100090E080E00E9497112DEC3CEC4CEC5DE3F2
:101B20000E944E1242CF11E08DCF112309F4A2CFB3
:101B300060E0AACF8F3F09F05BC186E0809300028E
:101B4000E4E5F1E01491812F1F3F09F451C11230F7
:101B500009F468C060F4112379F1113009F444C02C
:101B600087FD46C161E086E00E945A02B0CF143082
:101B700009F499C008F478C0153091F7109220014B
:101B80001092210180912101886080932101809130
:101B90002101816080932101EFEEF1E0E491F0E01A
:101BA000EE0FFF1FE159FE4F85919491E5E3F2E0BE
:101BB000E491E093280384CF14BC15BC84B5826003
:101BC00084BD85B5816085BDEFEEF1E0E491F0E084
:101BD000EE0FFF1FE159FE4F85919491E5E3F2E08E
:101BE000E491E0932F036CCF10928000109281005B
:101BF0008091810088608093810080918100816064
:101C000080938100EFEEF1E0E491F0E0EE0FFF1F32
:101C1000E159FE4F85919491E5E3F2E0E491E09380
:101C20002E034ECF1092B0001092B1008091B00000
:101C300082608093B0008091B10081608093B10098
:101C4000EFEEF1E0E491F0E0EE0FFF1FE159FE4FFF
:101C50008591949190932D0380932C03E5E3F2E01A
:101C6000E491E0932B032CCF1092900010929100FE
:101C700080919100886080939100809191008160B3
:101C800080939100EFEEF1E0E491F0E0EE0FFF1FA2
:101C9000E159FE4F85919491E5E3F2E0E491E09300
:101CA0002A0313E00DCF1092A0001092A1008091A2
:101CB000A10088608093A1008091A1008160809341
:101CC000A100EFEEF1E0E491F0E0EE0FFF1FE1592B
:101CD000FE4F85919491E5E3F2E0E491E0932903CE
:101CE000EFCE85B5887F836085BD84E487BD409253
:101CF00044035092450360924603709247038091DB
:101D00006E00826080936E0073C01130C1F48091C8
:101D10008100887F816080938100309289002092C9
:101D200088004092400350924103609242037092B7
:101D3000430380916F00826080936F0059C013301D
:101D4000C1F480919100887F8160809391003092EE
:101D50009900209298004092380350923903609283
:101D60003A0370923B03809171008260809371000E
:101D70003FC01430C1F48091A100887F81608093BE
:101D8000A1003092A9002092A80040923403509202
:101D9000350360923603709237038091720082603F
:101DA0008093720025C01530C1F480912101887F95
:101DB0008160809321013092290120922801409274
:101DC000300350923103609232037092330380915A
:101DD00073008260809373000BC0123009F474C1E9
:101DE0000CF067C1112309F46DC1113009F495CFCE
:101DF000E1E08091BB048111E0E0E195F0E0E8557D
:101E0000FB4F848980680E94F70564E772E088EAE6
:101E100094E00E94200860914A0370914B038091E6
:101E20004C0390914D030E94611188EA94E00E9456
:101E3000040767E772E088EA94E00E942008609156
:101E400005027091060280910702909108020E949B
:101E5000611188EA94E00E9404076BE772E088EA67
:101E600094E00E942008E091BB04E23008F02EC10B
:101E7000E150F0E0E855FB4F848980680E94F70547
:101E8000809149036DE372E0811102C060E472E069
:101E900088EA94E00E9420086EE772E088EA94E005
:101EA0000E9420088091480364E472E0811102C01E
:101EB00067E472E088EA94E00E94200860E872E03B
:101EC00088EA94E00E942008B70188EA94E00E9422
:101ED00004076EE772E088EA94E00E94200864E854
:101EE00072E088EF93E00E94200860914A037091AD
:101EF0004B0380914C0390914D0341E00E943E07BB
:101F000067E972E088EF93E00E9420086091050283
:101F100070910602809107029091080241E00E94B0
:101F20003E0766EA72E088EF93E00E942008609125
:101F3000010270910202809103029091040241E03B
:101F40000E943E0762EB72E088EF93E00E94200857
:101F500086E30E949602BC0188EF93E00E9404078A
:101F60006EEB72E088EF93E00E94200887E30E9406
:101F70009602BC0188EF93E00E94040767EC72E0D0
:101F800088EF93E00E9420086091490311E06127E7
:101F900070E088EF93E00E9404076FEC72E088EF36
:101FA00093E00E94200860914803612770E088EF69
:101FB00093E00E94040767ED72E088EF93E00E94CF
:101FC0002008B60188EF93E00E94040760EE72E0FB
:101FD00088EF93E00E942008B50188EF93E00E940B
:101FE000040769EE72E088EF93E00E942008609198
:101FF0004903612770E088EF93E00E94040762EFD5
:1020000072E088EF93E00E94200860914803612706
:1020100070E088EF93E00E9404076BEF72E088EFB6
:1020200093E00E9420086091490370E088EF93E0FC
:102030000E94040765E073E088EF93E00E942008A7
:102040006091480370E088EF93E00E9404076FE01E
:1020500073E088EF93E00E94A90661E772E088EFE1
:1020600093E00E94A90662E173E08BE593E00E9491
:10207000200860914903612770E08BE593E00E949E
:10208000040763E273E08BE593E00E94200860910F
:1020900048031627612F70E08BE593E00E94040748
:1020A00061E772E08BE593E00E94A9060E9420059B
:1020B00039CB143009F465CE0CF449CE153009F44F
:1020C0007ACE96CE8BE512CE8BE50BCDE1E0D1CE6C
:1020D00060E08EE20E94CE0160E08FE20E94CE01BD
:1020E00061E080E30E94CE01DDCC612F81E30E949C
:1020F000CE01112309F47CCED9CC5058BB27AA2796
:102100000E9495100C940F120E94011238F00E9448
:10211000081220F039F49F3F19F426F40C94FE11B4
:102120000EF4E095E7FB0C94F811E92F0E942012C1
:1021300058F3BA17620773078407950720F079F4FC
:10214000A6F50C9442120EF4E0950B2EBA2FA02D9A
:102150000B01B90190010C01CA01A0011124FF2754
:10216000591B99F0593F50F4503E68F11A16F0404F
:10217000A22F232F342F4427585FF3CF469537954E
:102180002795A795F0405395C9F77EF41F16BA0B13
:10219000620B730B840BBAF09150A1F0FF0FBB1FC1
:1021A000661F771F881FC2F70EC0BA0F621F731F0A
:1021B000841F48F4879577956795B795F7959E3F67
:1021C00008F0B0CF9395880F08F09927EE0F9795F8
:1021D000879508950E94D41108F481E008950E9423
:1021E00003110C940F120E94081258F00E94011261
:1021F00040F029F45F3F29F00C94F81151110C9430
:1022000043120C94FE110E94201268F39923B1F33B
:10221000552391F3951B550BBB27AA27621773070C
:10222000840738F09F5F5F4F220F331F441FAA1FA0
:10223000A9F335D00E2E3AF0E0E832D0915050405C
:10224000E695001CCAF72BD0FE2F29D0660F771F0A
:10225000881FBB1F261737074807AB07B0E809F0F0
:10226000BB0B802DBF01FF2793585F4F3AF09E3F75
:10227000510578F00C94F8110C9443125F3FE4F38D
:10228000983ED4F3869577956795B795F7959F5FB8
:10229000C9F7880F911D9695879597F90895E1E004
:1022A000660F771F881FBB1F621773078407BA0763
:1022B00020F0621B730B840BBA0BEE1F88F7E095BE
:1022C00008950E9468116894B1110C944312089506
:1022D0000E94281288F09F5798F0B92F9927B7517C
:1022E000B0F0E1F0660F771F881F991F1AF0BA95BA
:1022F000C9F714C0B13091F00E944212B1E00895C4
:102300000C944212672F782F8827B85F39F0B93FB5
:10231000CCF3869577956795B395D9F73EF490956C
:102320008095709561957F4F8F4F9F4F0895E894EA
:1023300009C097FB3EF490958095709561957F4F0D
:102340008F4F9F4F9923A9F0F92F96E9BB279395BB
:10235000F695879577956795B795F111F8CFFAF4CB
:10236000BB0F11F460FF1BC06F5F7F4F8F4F9F4FFC
:1023700016C0882311F096E911C0772321F09EE85A
:10238000872F762F05C0662371F096E8862F70E0C0
:1023900060E02AF09A95660F771F881FDAF7880F9A
:1023A0009695879597F90895990F0008550FAA0BF0
:1023B000E0E8FEEF16161706E807F907C0F0121658
:1023C0001306E407F50798F0621B730B840B950B5B
:1023D00039F40A2661F0232B242B252B21F40895B0
:1023E0000A2609F4A140A6958FEF811D811D08954D
:1023F00097F99F6780E870E060E008959FEF80ECB8
:10240000089500240A94161617061806090608955A
:1024100000240A9412161306140605060895092EC0
:102420000394000C11F4882352F0BB0F40F4BF2B2F
:1024300011F460FF04C06F5F7F4F8F4F9F4F08956F
:1024400057FD9058440F551F59F05F3F71F0479565
:10245000880F97FB991F61F09F3F79F0879508954A
:10246000121613061406551FF2CF4695F1DF08C069
:10247000161617061806991FF1CF86957105610586
:1024800008940895E894BB2766277727CB0197F92E
:1024900008950E94D41108F48FEF08950E946112EC
:1024A0000C940F120E94011238F00E94081220F0C2
:1024B000952311F00C94F8110C94FE1111240C9436
:1024C00043120E94201270F3959FC1F3950F50E0C4
:1024D000551F629FF001729FBB27F00DB11D639FD6
:1024E000AA27F00DB11DAA1F649F6627B00DA11D7C
:1024F000661F829F2227B00DA11D621F739FB00D22
:10250000A11D621F839FA00D611D221F749F332791
:10251000A00D611D231F849F600D211D822F762F2A
:102520006A2F11249F5750409AF0F1F088234AF007
:10253000EE0FFF1FBB1F661F771F881F9150504073
:10254000A9F79E3F510580F00C94F8110C944312AA
:102550005F3FE4F3983ED4F3869577956795B795FA
:10256000F795E7959F5FC1F7FE2B880F911D969514
:10257000879597F908950E94D411880B990B0895B7
:10258000A1E21A2EAA1BBB1BFD010DC0AA1FBB1F77
:10259000EE1FFF1FA217B307E407F50720F0A21BE9
:1025A000B30BE40BF50B661F771F881F991F1A9456
:1025B00069F760957095809590959B01AC01BD0180
:1025C000CF010895EE0FFF1F881F8BBF0790F69174
:0825D000E02D1994F894FFCFEF
:1025D800FF0000C07F0000C07F28292A2B2C2D2E49
:1025E8002F303100000000B30413044004000571CB
:1025F800044F04630400000000A30613044E054DB5
:10260800056E616E00696E66006F76660041210096
:10261800414F4B00422100424F4B005445534C411F
:10262800582053414645204D4F4445005445534C8E
:1026380041582C424F4F542C4D4547413235363086
:10264800000D0A00443A0020543A0043202020009C
:10265800205258005445534C4158207B20646973DC
:1026680074616E63653A002C2074656D70657261E3
:10267800747572653A002C2068756D69646974799F
:102688003A002C206D6F6973747572653A002C20BE
:102698006C696768743A002C20656E64413A002CB6
:1026A80020656E64423A002C2067726964413A00E2
:1026B8002C2067726964423A002C20636F696C4170
:1026C8003A002C20636F696C423A002C20666175D1
:1026D8006C74413A002C206661756C74423A002093
:1026E8007D005445534C41585F4252494447452068
:0826F800413D0020423D0000BD
:00000001FF
