:020000040000FA
:100000000C943F010C9470010C9470010C947001DD
:100010000C9470010C9470010C9470010C9470019C
:100020000C9470010C9470010C9470010C9470018C
:100030000C9470010C947D090C9470010C94700167
:100040000C9470010C9470010C9470010C9470016C
:100050000C9470010C9470010C9470010C94330991
:100060000C9470010C94A60A0C947C0A0C947001F8
:100070000C9470010C9470010C9470010C9470013C
:100080000C9470010C9470010C9470010C9470012C
:100090000C94460A0C941C0A0C9470010C94700188
:1000A0000C9470010C9470010C9470010C9470010C
:1000B0000C9470010C9470010C9470010C947001FC
:1000C0000C9470010C9470010C9470010C947001EC
:1000D0000C9470010C9470010C9470010C947001DC
:1000E0000C9470010C9422020C9401020C940A02EC
:1000F0000C94F5010C94FD010C9426020C94210B38
:100100000C94BC050C948B040C94F9010C942105FF
:100110000C94DF040C940E020C9420070C947C04C5
:100120000C9404020C9430020C941C020C941402E3
:100130000C94D1040C9434020C94EF010C9418022A
:100140000C94BB050C942F020C944F040C946E0578
:100150000C9429160C942A02020000210024002786
:10016000002A002D003000330001010000040107C7
:10017000010A0100002200250028002B002E00317A
:1001800000340002010000050108010B0100000A13
:100190000B02090C0D0E080703040100000000000B
:1001A000000000000000000000000000000000004F
:1001B000000000000000000000121110000000000C
:1001C000000000000000000000000000000000002F
:1001D000000000000020002300260029002C002F32
:1001E00000320000010000030106010901050505B8
:1001F00005070508080808020202020A0A0808049E
:1002000004040401010101010101010303030303CB
:10021000030303040707070C0C0C0C0C0C0C0C025A
:1002200002020206060606060606060B0B0B0B0B61
:100230000B0B0B010210202008081020401020405A
:10024000800201020108040201010204081020409A
:1002500080804020100804020180040201804020B8
:1002600010080402010804020101020408102040E1
:1002700080010204081020408000210B291611245F
:100280001FBECFEFD1E2DEBFCDBF00E00CBF26E046
:10029000A2ECB4E001C01D92AE38B207E1F714E061
:1002A000A0E0B2E0ECECF5E300E00BBF02C0079089
:1002B0000D92A23CB107D9F711E0CEE3D1E000E006
:1002C00006C021970109802FFE010E949718CD33A7
:1002D000D10780E00807A9F70E94B70B0C94D41A45
:1002E0000C940000FC01A089B18982E08C93A48564
:1002F000B5851C92A685B78580E18C93108EA48964
:10030000B58986E08C93A289B3898C9180618C93A6
:10031000A289B3898C9188608C93A289B3898C91CE
:1003200080688C930288F389E02D80818F7D8083A3
:100330000895CF92DF92EF92FF92CF93DF93B09127
:100340006606A0E08111AB2F8091670690E0880FD0
:10035000991FAC014D525E4FC0906C06D0906D0657
:10036000E0906E06F0906F0630E020E0FA01C59153
:10037000D491E881B90190E080E0EB23EA130AC050
:100380002F5F3F4F6C157D058E059F0578F36FEF4E
:100390007FEFCB01DF91CF91FF90EF90DF90CF9077
:1003A00008958150823108F05AC0E82FF0E0882784
:1003B000E352FE4F8F4F0C949718FD010102EF019D
:1003C000F501F9012F0204020A020E0214021802BA
:1003D0001C02220226022F022A02300234028091DD
:1003E00080008F77809380000895809180008F7DBA
:1003F000F9CF80918000877FF5CF84B58F7784BD5A
:10040000089584B58F7DFBCF8091B0008F77809366
:10041000B00008958091B0008F7DF9CF8091900059
:100420008F77809390000895809190008F7DF9CF11
:1004300080919000877FF5CF8091A0008F77809387
:10044000A00008958091A0008F7DF9CF8091A00039
:10045000877FF5CF809120018F77809320010895C9
:10046000809120018F7DF9CF80912001877FF5CF8A
:10047000CF93DF93282F30E0F901E357FE4F8491AB
:10048000F901ED5CFD4FD491F901E351FE4FC491A8
:10049000CC23A1F081110E94D101EC2FF0E0EE0FEE
:1004A000FF1FED52FE4FA591B491EC91ED2381E039
:1004B00090E009F480E0DF91CF91089580E090E032
:1004C000FACF1F93CF93DF93282F30E0F901E35742
:1004D000FE4F8491F901ED5CFD4FD491F901E35198
:1004E000FE4FC491CC23A9F0162F81110E94D10197
:1004F000EC2FF0E0EE0FFF1FED58FE4FA591B491E9
:100500008FB7F894EC91111108C0D095DE23DC93DD
:100510008FBFDF91CF911F910895DE2BF8CFCF933E
:10052000DF9390E0FC01ED5CFD4F249183519E4FE1
:10053000FC0184918823C9F090E0880F991FFC0189
:10054000E75AFE4FA591B491FC01ED58FE4FC591BD
:10055000D49161110DC09FB7F8948C91209582239E
:100560008C938881282328839FBFDF91CF910895A2
:10057000623051F49FB7F8943C91822F8095832389
:100580008C93E8812E2BEFCF8FB7F894EC912E2B24
:100590002C938FBFEACF865320917B00982F987FB2
:1005A000277F922B90937B008770806480937C00E0
:1005B00080917A00806480937A0080917A0086FD31
:1005C000FCCF809178009091790008953FB7F8941E
:1005D00080911B0590911C05A0911D05B0911E05F1
:1005E00026B5A89B05C02F3F19F00196A11DB11D8E
:1005F0003FBFBA2FA92F982F8827BC01CD01620FCA
:10060000711D811D911D42E0660F771F881F991F84
:100610004A95D1F708958F929F92AF92BF92CF9251
:10062000DF92EF92FF924B015C010E94E6026B01A8
:100630007C010E94E6026C197D098E099F09683EC3
:10064000734081059105A8F321E0821A9108A10861
:10065000B10888EEC80E83E0D81EE11CF11C81149D
:100660009104A104B10429F7FF90EF90DF90CF909F
:10067000BF90AF909F908F9008952FB7F89460919E
:100680001705709118058091190590911A052FBFD3
:100690000895CF92DF92EF92FF920F931F93CF9323
:1006A000DF93CDB7DEB7C054D1400FB6F894DEBFAC
:1006B0000FBECDBF0E943D030091680610916906F0
:1006C00020916A0630916B066B017C01C01AD10A39
:1006D000E20AF30A97018601003D17402105310522
:1006E00090F480917006C05CDE4F0FB6F894DEBFC8
:1006F0000FBECDBFDF91CF911F910F91FF90EF9073
:10070000DF90CF9008956093680670936906809398
:100710006A0690936B06109263061092620610921E
:1007200061061092600610925F0662E08091640696
:100730000E948F0261E070E080E090E00E940B0375
:1007400061E0809164060E948F0260E080916406FF
:100750000E946102809165068551823020F58BE20E
:1007600091E10197F1F762E0809164060E948F02A7
:100770008091710690E08230910538F0880F991FC2
:10078000880F991F05970197F1F7F89480E00E9470
:1007900099016F3F7F4F8F4F9F4F61F4109270060A
:1007A000789480E0A0CF64E170E080E090E00E9467
:1007B0000B03D9CF81E00E9499016F3F7F4F8F4F8C
:1007C0009F4F61F38E010F5F1F4F6E012FEBC21A17
:1007D0002EEFD20A780180E00E949901F701608330
:1007E00071838283938381E00E949901F70164837E
:1007F000758386839783F8E0EF0EF11CEC14FD04FB
:1008000051F7789430E020E0F801C080D180E28098
:10081000F3804481558166817781FFEFCF16DF0633
:10082000EF06FF0631F04F3F8FEF58076807780754
:1008300019F410927006B5CFF90183E0F595E795AC
:100840008A95E1F7E15AF94F8081880FC416D506E1
:10085000E606F70610F180832F5F3F4F085F1F4FBA
:100860002832310589F64091630620915F06809118
:100870006006280F3327331F80916106280F311D32
:1008800080916206820F932F911D992748171906B0
:1008900081F681E08093700626CF8160DCCFAF9235
:1008A000BF92CF92DF92EF92FF920F931F93CF935D
:1008B000DF936C017B018B01040F151FEB015E01BF
:1008C000AE18BF08C017D10759F06991D601ED9154
:1008D000FC910190F081E02DC6011995892B79F7E3
:1008E000C501DF91CF911F910F91FF90EF90DF90A5
:1008F000CF90BF90AF900895FC01538D448D252F6C
:1009000030E0842F90E0821B930B541710F0CF96A9
:10091000089501970895FC01918D828D981761F0DB
:10092000A28DAE0FBF2FB11D5D968C91928D9F5FF2
:100930009F73928F90E008958FEF9FEF08950F932C
:100940001F930E943D036093C4057093C505809377
:10095000C6059093C7058CEB95E00E948B0497FF2A
:100960001DC00E943D030091C4051091C505209152
:10097000C6053091C705601B710B820B930B00916C
:10098000C0051091C1052091C2053091C3056017C3
:10099000710782079307F8F28FEF9FEF1F910F9176
:1009A0000895FC01918D828D981731F0828DE80FAA
:1009B000F11D858D90E008958FEF9FEF0895FC0164
:1009C000918D228D892F90E0805C9F4F821B910931
:1009D0008F73992708958FE195E00E94DF0421E04D
:1009E000892B09F420E0822F08958CEB95E00E947A
:1009F000DF0421E0892B09F420E0822F0895FC0117
:100A0000A48DA80FB92FB11DA35ABF4F2C91848D6F
:100A100090E001968F739927848FA689B7892C93CC
:100A2000A089B1898C91837080648C93938D848D1F
:100A3000981306C00288F389E02D80818F7D808322
:100A40000895EF92FF920F931F93CF93DF93EC01E2
:100A500081E0888F9B8D8C8D98131AC0E889F98965
:100A6000808185FF15C09FB7F894EE89FF89608368
:100A7000E889F98980818370806480839FBF81E0E9
:100A800090E0DF91CF911F910F91FF90EF9008952B
:100A9000F62E0B8D10E00F5F1F4F0F731127E02E06
:100AA0008C8D8E110CC00FB607FCFACFE889F9893E
:100AB000808185FFF5CFCE010E94FF04F1CFEB8D41
:100AC000EC0FFD2FF11DE35AFF4FF0829FB7F89412
:100AD0000B8FEA89FB8980818062CFCFCF93DF9330
:100AE000EC01888D8823B9F0AA89BB89E889F98946
:100AF0008C9185FD03C0808186FD0DC00FB607FC7B
:100B0000F7CF8C9185FFF2CF808185FFEDCFCE01AD
:100B10000E94FF04E9CFDF91CF91089580E090E03B
:100B2000892B29F00E94F50481110E94000080E0C9
:100B300090E0892B29F00E94EB0481110E940000B3
:100B400080E090E0892B49F080E090E0892B29F04B
:100B50000E94000081110E94000080E090E0892B3B
:100B600049F080E090E0892B29F00E94000081117B
:100B70000C9400000895089590E080E0089560E0EE
:100B800088E20E94610260E089E20E94610260E006
:100B90008AE20E94610260E08BE20C946102CF93D2
:100BA000DF93EC0160E08E810E94610261E08E8142
:100BB0000E94610260E08E810E9461028BE891E0F8
:100BC0000197F1F7DF91CF910895CF92DF92EF92E5
:100BD000FF920F931F93CF93DF936C017C0187E00B
:100BE000E80EF11CD0E0C0E0062F10E0B8010C2E9A
:100BF00002C0759567950A94E2F76170F7018191DB
:100C00007F010E9461022196C430D10579F7C601A7
:100C1000DF91CF911F910F91FF90EF90DF90CF90D8
:100C20000C94CF05CF92DF92EF92FF920F931F9318
:100C3000CF93DF93EC01F62E642F8C810E9461022A
:100C40008D818F3F19F060E00E9461020F2D10E04E
:100C50008F8584FF25C06E0187E0C80ED11CF12C62
:100C6000E12CB8010E2C02C0759567950A94E2F745
:100C70006170F60181916F010E946102FFEFEF1A2E
:100C8000FF0A88E0E816F10461F7CE01DF91CF9109
:100C90001F910F91FF90EF90DF90CF900C94CF05B4
:100CA000B80184E0759567958A95E1F7CE010E94B9
:100CB000E5056F2DCE01DF91CF911F910F91FF9030
:100CC000EF90DF90CF900C94E505CF93DF938230C7
:100CD00029F490918106986090938106809385060F
:100CE0001092860680E48093870680E180938806D0
:100CF00080E58093890661E0809176060E948F02EC
:100D0000809177068F3F19F061E00E948F0261E0C9
:100D1000809178060E948F02C2E7D6E09E0122579A
:100D200036408091810684FD0BC084E090E02196DE
:100D30002817390744F461E08E810E948F02EECFBC
:100D400088E090E0F4CF8BE39DE00197F1F760E05D
:100D5000809176060E94610260E0809178060E9490
:100D60006102809177068F3F19F060E00E94610276
:100D70006091810664FD45C063E082E796E00E94D1
:100D8000E505CBE4D6E4CE010197F1F763E082E715
:100D900096E00E94E5052197F1F763E082E796E08F
:100DA0000E94E50583E592E00197F1F762E082E7B2
:100DB00096E00E94E50560918106606240E082E76E
:100DC00096E00E94120684E08093820640E06CE088
:100DD00082E796E00E94120640E061E082E796E03A
:100DE0000E9412068BE39FE10197F1F782E0809366
:100DF000830640E066E082E796E0DF91CF910C94B5
:100E00001206606240E082E796E00E9412068BE4E0
:100E100096E40197F1F760918106606240E082E715
:100E200096E00E94120683E592E00197F1F7609147
:100E30008106606240E082E796E00E941206BBCF26
:100E400041E00E94120681E090E00895FB010190CC
:100E50000020E9F73197AF01461B570B0C944F0464
:100E60008F929F92AF92BF920F931F93CF93DF9376
:100E7000CDB7DEB7A1970FB6F894DEBF0FBECDBFDA
:100E800019A2423008F44AE08E010F5D1F4F842EF4
:100E9000912CB12CA12CA50194010E947518E62F6C
:100EA000B901CA01EA3004F5E05DD801EE938D0185
:100EB000232B242B252B79F790E080E0109729F045
:100EC000BD018CEB95E00E942607A1960FB6F89421
:100ED000DEBF0FBECDBFDF91CF911F910F91BF90AD
:100EE000AF909F908F900895E95CDFCFCF92DF9213
:100EF000EF92FF92CF93DF936C01990FEE08FF08FA
:100F0000F7FE19C06DE28CEB95E00E942105EC0123
:100F100066277727CB016C197D098E099F094AE066
:100F20000E9430078C0F9D1FDF91CF91FF90EF90B3
:100F3000DF90CF9008954AE0C701B601DF91CF91CD
:100F4000FF90EF90DF90CF900C9430074F925F921C
:100F50006F927F928F929F92AF92BF92CF92DF92C9
:100F6000EF92FF92CF936B017C01842EAC019B0129
:100F70000E94701863E472E0811126C026013701D7
:100F8000E89477F82FEF3FEF4FE75FE7C301B20137
:100F90000E94701881110CC02FEF3FEF4FE75FE701
:100FA000C301B2010E94361667E472E0181664F0BD
:100FB0002FEF3FEF4FE75FE4C701B6010E946B18C8
:100FC00018169CF46BE472E08CEB95E0CF91FF90E7
:100FD000EF90DF90CF90BF90AF909F908F907F90D9
:100FE0006F905F904F900C9426072FEF3FEF4FE7E5
:100FF0005FECC701B6010E94361687FDE3CF20E003
:1010000030E0A901C701B6010E943616B12CA12C0F
:1010100087FF0AC06DE28CEB95E00E9421055C0120
:10102000F7FAF094F7F8F094C82D60E070E080E0F3
:101030009FE3912C20E030E040E251E40E94CA1787
:1010400093949814B8F3A70196010E945E172B01A0
:101050003C010E943C186B017C010E943B169B01E5
:10106000AC01C301B2010E945D172B013C014AE0B3
:10107000C701B6010E9430077C016EE28CEB95E05F
:101080000E942105E80EF91EEA0CFB1CC15018F164
:1010900020E030E040E251E4C301B2010E949C161E
:1010A0002B013C010E943C184B01B12CA12C4AE0C1
:1010B000C501B4010E943007E80EF91EC501B40154
:1010C0000E943B169B01AC01C301B2010E945D1757
:1010D0002B013C01DBCFC701CF91FF90EF90DF9058
:1010E000CF90BF90AF909F908F907F906F905F90C8
:1010F0004F9008950F931F93CF93DF938C01D0E00F
:10110000C0E06115710519F00E942607EC016FE43B
:1011100072E0C8010E9426078C0F9D1FDF91CF91BE
:101120001F910F9108950C9426070F931F93CF934F
:10113000DF93EC0188819981009759F02A813B81E6
:101140002617370730F081E0DF91CF911F910F9183
:1011500008958B016F5F7F4F0E94C419009759F06B
:10116000998388831B830A832C813D81232B59F724
:10117000FC011082E8CF80E0E7CFCF93DF93EC0152
:1011800088819981009711F00E943B191982188279
:101190001D821C821B821A82DF91CF910895EF92EB
:1011A000FF920F931F93CF93DF93EC017B01198282
:1011B00018821B821A821D821C82FB010190002072
:1011C000E9F731978F01061B170BB8010E949508AC
:1011D000811109C0CE01DF91CF911F910F91FF9036
:1011E000EF900C94BD081D830C83B7018881998111
:1011F000DF91CF911F910F91FF90EF900C94BF1A48
:10120000EF92FF920F931F93CF93DF938C017B019B
:10121000EB0109900020E9F72197C61BD70BBE010F
:101220000E949508811109C0C801DF91CF911F91DB
:101230000F91FF90EF900C94BD08F801D583C48303
:10124000B70180819181DF91CF911F910F91FF9024
:10125000EF900C94BF1AFC0180819181009711F0EE
:101260000C943B1908951F920F920FB60F92112400
:101270002F933F938F939F93AF93BF9380911705C5
:1012800090911805A0911905B0911A053091160595
:1012900023E0230F2D3758F50196A11DB11D209392
:1012A00016058093170590931805A0931905B09320
:1012B0001A0580911B0590911C05A0911D05B09108
:1012C0001E050196A11DB11D80931B0590931C0561
:1012D000A0931D05B0931E05BF91AF919F918F9173
:1012E0003F912F910F900FBE0F901F90189526E8F9
:1012F000230F0296A11DB11DD2CF1F920F920FB6E0
:101300000F9211240BB60F922F933F934F935F933D
:101310006F937F938F939F93AF93BF93EF93FF93BD
:101320008091D6049091D704A091D804B091D904AB
:10133000892B8A2B8B2BE1F19091C504E091C60497
:10134000F091C7048081892780838091D604909191
:10135000D704A091D804B091D904181619061A061A
:101360001B069CF48091D6049091D704A091D804D8
:10137000B091D9040197A109B1098093D604909343
:10138000D704A093D804B093D904FF91EF91BF91F3
:10139000AF919F918F917F916F915F914F913F910D
:1013A0002F910F900BBE0F900FBE0F901F901895AE
:1013B00080910002E8E5F1E0E4919FEF9093000254
:1013C000E230E9F040F4EE2389F0E13091F060E0A2
:1013D0000E946102DACFE43049F110F1E530B9F74B
:1013E000909173009D7F90937300F1CF10926E00E7
:1013F000EECF90916F009D7F90936F00E8CF90911A
:1014000070009D7F9093700091E09093B000909158
:10141000B100987F94609093B1001092B300D7CF41
:10142000909171009D7F90937100D1CF9091720047
:101430009D7F90937200CBCF1F920F920FB60F92A9
:1014400011240BB60F922F933F934F935F936F939B
:101450007F938F939F93AF93BF93EF93FF938FE10E
:1014600095E00E94FF04FF91EF91BF91AF919F9192
:101470008F917F916F915F914F913F912F910F903D
:101480000BBE0F900FBE0F901F9018951F920F92DA
:101490000FB60F9211240BB60F922F938F939F9339
:1014A000EF93FF93E0912F05F09130058081E0915B
:1014B0003505F091360582FD1DC09081809138057B
:1014C0008F5F8F7320913905821741F0E0913805C5
:1014D000F0E0E15EFA4F958F80933805FF91EF9130
:1014E0009F918F912F910F900BBE0F900FBE0F9079
:1014F0001F9018958081F2CF1F920F920FB60F9216
:1015000011240BB60F922F933F934F935F936F93DA
:101510007F938F939F93AF93BF93EF93FF938CEB46
:1015200095E00E94FF04FF91EF91BF91AF919F91D1
:101530008F917F916F915F914F913F912F910F907C
:101540000BBE0F900FBE0F901F9018951F920F9219
:101550000FB60F9211240BB60F922F938F939F9378
:10156000EF93FF93E091CC05F091CD058081E09160
:10157000D205F091D30582FD1DC090818091D505E3
:101580008F5F8F732091D605821741F0E091D505CA
:10159000F0E0E454FA4F958F8093D505FF91EF91D9
:1015A0009F918F912F910F900BBE0F900FBE0F90B8
:1015B0001F9018958081F2CFCF92DF92EF92FF9229
:1015C0000F931F93E82FF92F05C00150110921092E
:1015D000310961F1908196239417B9F305C0015048
:1015E00011092109310911F1908196239413F7CF44
:1015F000C12CD12CE12CF12C0AC08FEFC81AD80ACB
:10160000E80AF80A0C151D052E053F0579F08081C2
:101610008623841791F36C2D7D2D8E2D9F2D1F9188
:101620000F91FF90EF90DF90CF90089560E070E011
:1016300080E090E01F910F91FF90EF90DF90CF90AE
:101640000895EFE1F5E01382128248EE53E060E086
:1016500070E0448355836683778389E292E09183C7
:1016600080832DEC30E0358724872CEC30E0378701
:10167000268728EC30E0318B208B29EC30E0338B4F
:10168000228B2AEC30E0358B248B2EEC30E0378B2C
:10169000268B118E128E138E148EECEBF5E01382D6
:1016A000128244835583668377839183808385EC9C
:1016B00090E09587848784EC90E09787868780EC1C
:1016C00090E0918B808B81EC90E0938B828B82EC0D
:1016D00090E0958B848B86EC90E0978B868B118EB7
:1016E000128E138E148EE2E7F6E0138212828BE3E1
:1016F00092E0918380838EE184838FEF85838FE1F5
:10170000868380E2878381E2808782E2818783E229
:1017100082871386148615861686178681E00E94B6
:101720006506AFE5B6E088E115968C93159786E1DE
:1017300016968C931697EBE4F2E0E4911796EC93EF
:101740001797E5E0F2E0E4911896EC93189740E8DB
:101750005EE360E070E01D964D935D936D937C9326
:10176000509762E572E089E596E00C94CF08CF933C
:10177000DF93CDB7DEB7CE55D1090FB6F894DEBFF3
:101780000FBECDBF789484B5826084BD84B581607E
:1017900084BD85B5826085BD85B5816085BD80913C
:1017A0006E00816080936E001092810080918100B4
:1017B00082608093810080918100816080938100AC
:1017C000809180008160809380008091B10084606E
:1017D0008093B1008091B00081608093B0008091CF
:1017E000910082608093910080919100816080934C
:1017F0009100809190008160809390008091A10081
:1018000082608093A1008091A10081608093A100FB
:101810008091A00081608093A0008091210182606E
:101820008093210180912101816080932101809129
:10183000200181608093200180917A0084608093F0
:101840007A0080917A00826080937A0080917A0099
:10185000816080937A0080917A00806880937A001A
:101860001092C10061E086E10E948F0260E087E192
:101870000E948F0260E089E10E948F0260E08AE1AD
:101880000E948F0260E08BE10E948F0261E086E09F
:101890000E948F028AE0E7E0F2E0DE0111960190FB
:1018A0000D928A95E1F78E010F5F1F4F7E012BE0AD
:1018B000E20EF11C61E0D8018D918D010E948F0232
:1018C000E016F106B9F70E94BF0562E08091640658
:1018D0000E948F020E943D03605D7740810991095B
:1018E000609368067093690680936A0690936B060E
:1018F00087E38093710682E00E9465068CEB95E099
:101900000E9472018FE195E00E94720162EA72E02A
:101910008CEB95E00E947A0867EB72E08CEB95E027
:101920000E947A08FE0131961F0120EB422E5524B9
:101930005394612C712C8CEB95E00E94DF04892B71
:1019400009F4B2C061E572E0CE018D5B9F4F0E9449
:10195000CF080E949F0497FD25C08A30910511F1A0
:1019600089831A8229960EAD1FAD29970F5F1F4FED
:10197000B801CE018D5B9F4F0E949508882349F3E3
:1019800025962EAD3FAD259729968EAD9FAD299713
:10199000B101820F931F0E94BF1A29961FAF0EAF8D
:1019A0002997D7CF2596AEACBFAC2597A114B1042B
:1019B00041F02996EEACFFAC29976501E114F104E2
:1019C000C1F425960EAD1FAD25970115110509F43B
:1019D0004FC0D8018D918D01882309F449C0082E8C
:1019E000000C990B0E94A51AF80131978083F1CF62
:1019F00064014601FFEF8F1A9F0AD6018C91082ED1
:101A0000000C990B0E942D16892B91F7B1E0EB1A6F
:101A1000F108EA0CFB1CF7018081082E000C990BE1
:101A20000E942D16892B39F0EC14FD0420F0F1E012
:101A3000EF1AF108F0CF2FEFE21AF20AA7014C19C2
:101A40005D0929965FAF4EAF2997AC14BD0420F411
:101A5000B601C5010E94AD1A2596EEADFFAD2597E2
:101A600029968EAD9FAD2997E80FF91F1082A9CF57
:101A700029968EAD9FAD2997892B09F4C0C0259674
:101A80000EAD1FAD259764E373E0C8010E94B61A3E
:101A9000892B09F098C01092E3041092E204CE0161
:101AA0008D5B9F4F0E942B090E943D030091120500
:101AB000109113052091140530911505601B710BD1
:101AC000820B930B683E73408105910510F40C94D2
:101AD0009D150E943D03609312057093130580933A
:101AE00014059093150560E086E10E94610283E091
:101AF00090E00197F1F761E086E10E94610283E2E4
:101B000090E00197F1F760E086E10E946102EAE46B
:101B1000F2E06491E4E0F2E0E491F0E0EE0FFF1F08
:101B2000ED52FE4F8591949100E315E720E030E0FF
:101B3000462F0E94DC0A611571058105910509F4A3
:101B400038C16F5F7F4F8F4F9F4F9F706115710539
:101B50008105910509F42DC10E943B1628E23EE75C
:101B60004CE05DE30E949C1620E030E040E05FE343
:101B70000E949C162D966CAF7DAF8EAF9FAF2D97B8
:101B80002D968CAD9DADAEADBFAD2D9780930E055E
:101B900090930F05A0931005B09311050E9449037F
:101BA000882351F0809165068C3009F46EC108F0ED
:101BB0000BC18B3009F422C1C12CD12CA0ECEA2E30
:101BC000AFE7FA2E45C16AE373E0C8010E94B61A76
:101BD000892BA9F461E473E08CEB95E00E949308F3
:101BE000E091E204F091E304EE0FFF1FEF5EFD4F82
:101BF000608171818CEB95E00E947A0850CF61E49E
:101C000073E0C1010E94CF084D815E8129968EAD9F
:101C10009FAD29978417950780F025968EAD9FADCF
:101C20002597009751F069817A816115710529F036
:101C30000E94C61A11E0892B09F010E0C1010E9430
:101C40002B09111115C029968EAD9FAD2997892BAF
:101C500009F425CF6FE273E025968EAD9FAD2597F1
:101C60000E94B61A892B09F01ACF67EB72E0C2CF37
:101C700029960EAD1FAD299785E0C82ED12C0530D1
:101C8000110518F0680105E010E061E572E0CE0191
:101C9000CD960E94CF082996EEACFFAC29970E1581
:101CA0001F0510F5CE14DF0408F476012596EEAD7D
:101CB000FFAD2597EE0DFF1DD080108225966EADED
:101CC0007FAD2597600F711FCE01CD96611571050F
:101CD00009F468C00E94000925968EAD9FAD259736
:101CE000E80EF91EF701D08267E473E0C1010E949B
:101CF000CF086EE473E0CE0107960E94CF086AE534
:101D000073E0CE010D960E94CF0861E772E0CE012C
:101D100043960E94CF0863E872E0CE0149960E9484
:101D2000CF086BE772E0CE014F960E94CF0869E9B9
:101D300072E0CE0185960E94CF0862E672E0CE0185
:101D40008B960E94CF0867E572E0CE01C1960E9493
:101D5000CF0866E673E0CE01C7960E94CF082396AF
:101D6000AEACBFAC23978DAC9EAC6101F12CE12CE5
:101D7000D60114968D919C911597A816B90609F075
:101D80004CC76D917C918114910409F434C761159D
:101D9000710559F4A114B10409F43BC7D4018C9125
:101DA00090E035C70E94BD0897CFC4010E94B61AC3
:101DB0002EC780E090ECA9E7B4E42D968CAF9DAFE0
:101DC000AEAFBFAF2D97DCCE8551823008F0F4CE98
:101DD00010916106612F70E0762F662766277F7766
:101DE00080916206682B90E080E00E943B162DEC0B
:101DF0003CEC4CEC5DE30E949C1663C06091610674
:101E000070E090E080E00E943B166B017C01109135
:101E1000620617FF0AC0AC019B0160E070E080E839
:101E20009FEB0E945D176B017C011F70612F70E0BA
:101E300090E080E00E943D162DEC3CEC4CEC5DE324
:101E40000E949C16A70196010E945E176B017C01FF
:101E5000C0920A05D0920B05E0920C05F0920D0598
:101E60000E944903882351F0809165068B3030F041
:101E70008D3080F18551823008F4CDC2812C912CB7
:101E8000F0ECAF2EFFE7BF2E43C010916106612F2B
:101E900070E090E080E00E943B166B017C01609155
:101EA00062066F7070E090E080E00E943D162DECBD
:101EB0003CEC4CEC5DE30E949C16A70196010E944D
:101EC0005E176B017C0117FFC3CFF7FAF094F7F8A8
:101ED000F094BECF6091600670E090E080E00E94D8
:101EE0003D162DEC3CEC4CEC5DE30E949C164B0146
:101EF0005C0160915F0670E090E080E00E943D161A
:101F00009B01AC01C501B4010E945E174B015C014D
:101F10008092060590920705A0920805B0920905E7
:101F2000A7019601C701B6010E94701811E0811146
:101F300009C0A5019401C501B4010E947018811166
:101F400001C010E089E30E94CB02BC01990F880B0D
:101F5000990B0E943D1620E030E040EA50E40E94D8
:101F60009C1620E030EC4FE754E40E94CA176196BB
:101F70006CAF7DAF8EAF9FAF61976093020570939A
:101F8000030580930405909305058AE30E94CB0224
:101F9000BC01990F880B990B0E943D1620E030E0A0
:101FA00040EA50E40E949C1620E030EC4FE754E4F5
:101FB0000E94CA1765966CAF7DAF8EAF9FAF6597D5
:101FC0006093FE047093FF048093000590930105D5
:101FD0008FE30E94CB02BC01990F880B990B0E94E2
:101FE0003D1620E030E040EA50E40E949C1620E0DC
:101FF00030EC4FE754E40E94CA1769966CAF7DAF8E
:102000008EAF9FAF69976093FA047093FB0480933F
:10201000FC049093FD0481E40E94CB02BC01990F63
:10202000880B990B0E943D1620E030E040EA50E416
:102030000E949C1620E030EC4FE754E40E94CA173F
:102040006D966CAF7DAF8EAF9FAF6D976093F604CA
:102050007093F7048093F8049093F90488E30E9446
:10206000CB026F969FAF8EAF6F9720E030E048ECC9
:1020700052E42D966CAD7DAD8EAD9FAD2D970E9437
:10208000CA1720E030E040E85FE30E945E179B0142
:10209000AC0160E070E080E89FE30E94CA172DEC7D
:1020A0003CEC4CE45FE30E949C164B015C0120E099
:1020B00030E0A9010E94361687FDBFC120E030E064
:1020C00040E85FE3C501B4010E946B18181634F4B0
:1020D000812C912CE0E8AE2EEFE3BE2E8092F2042C
:1020E0009092F304A092F404B092F5042DEC3CEC31
:1020F0004CE45FE3C501B4010E949C164B015C01F6
:1021000020E030E0A9010E94361687FD9AC120E048
:1021100030E040E85FE3C501B4010E946B18181677
:1021200034F4812C912C70E8A72E7FE3B72E809297
:10213000EE049092EF04A092F004B092F10420E03B
:1021400030E040E051E469966CAD7DAD8EAD9FAD61
:1021500069970E949C16A70196010E945E174B0189
:102160005C018092EA049092EB04A092EC04B0929D
:10217000ED0420E030E040E051E46D966CAD7DADC3
:102180008EAD9FAD6D970E949C16A70196010E948F
:102190005E176B017C01C092E604D092E704E092E6
:1021A000E804F092E904212F11114DC020E030E045
:1021B00044E353E42D966CAD7DAD8EAD9FAD2D9770
:1021C0000E946B1818160CF440C120E030E040E883
:1021D0005FE361966CAD7DAD8EAD9FAD61970E9462
:1021E000361687FD32C12AE939E949E950E461969A
:1021F0006CAD7DAD8EAD9FAD61970E946B181816CA
:102200000CF423C123E333E343E150E469966CAD5E
:102210007DAD8EAD9FAD69970E946B1818160CF4BA
:1022200014C120E030E04CE852E4C501B4010E9442
:102230006B1818160CF409C18AE10E94380221E0DB
:10224000892B09F420E02093E504212F111145C0CA
:102250006F96AEADBFAD6F9754970CF4F8C020E009
:1022600030E040E85FE365966CAD7DAD8EAD9FAD2F
:1022700065970E94361687FDEAC02AE939E949E9DF
:1022800050E465966CAD7DAD8EAD9FAD65970E94B7
:102290006B1818160CF4DBC023E333E343E150E47E
:1022A0006D966CAD7DAD8EAD9FAD6D970E946B1838
:1022B00018160CF4CCC020E030E04CE852E4C70122
:1022C000B6010E946B1818160CF4C1C08BE10E9475
:1022D000380221E0892B09F420E02093E4046AE627
:1022E00072E011113DC420E030E044E353E42D9648
:1022F0006CAD7DAD8EAD9FAD2D970E946B1860E9E2
:1023000072E018160CF42CC420E030E040E85FE3E3
:1023100061966CAD7DAD8EAD9FAD61970E94361616
:1023200087FD1CC420E030E040E85FE365966CADBB
:102330007DAD8EAD9FAD65970E94361687FD0EC4AC
:102340002AE939E949E950E461966CAD7DAD8EAD7D
:102350009FAD61970E946B1818160CF42FC42AE9E0
:1023600039E949E950E465966CAD7DAD8EAD9FAD20
:1023700065970E946B1818160CF420C423E333E30E
:1023800043E150E469966CAD7DAD8EAD9FAD69972C
:102390000E946B1818160CF414C423E333E343E1D2
:1023A00050E46D966CAD7DAD8EAD9FAD6D970E9486
:1023B0006B1818160CF405C420E030E04CE852E429
:1023C000C501B4010E946B1818160CF4FDC320E07F
:1023D00030E04CE852E4C701B6010E946B181816B1
:1023E0000CF4F2C36F96EEADFFAD6F9762E672E04C
:1023F00074970CF4B5C38AE10E943802892B41F42A
:102400008BE10E94380262E572E0892B09F4A8C3CF
:1024100067E572E0A5C360915F067091600676275C
:102420006727762790E080E00E943B162DEC3CEC7D
:102430004CEC5DE30E949C1669CD812C912C5401DB
:102440004DCE812C912C540172CE21E0FCCE21E0A6
:1024500044CF0230110509F0BDC365E773E089E59B
:1024600096E00E9400096BE772E00530110531F03B
:1024700069E972E00630110509F0B6C389E596E016
:102480000E9400090E94BF0561E08CE20E94610287
:1024900061E08DE20E9461021091E504111108C013
:1024A00061E088E20E94610261E08AE20E946102CA
:1024B0000091E40460E001110AC061E089E20E9439
:1024C000610261E08BE20E94610261E061278EE2BD
:1024D0000E946102612F8FE20E946102602F80E3FF
:1024E0000E946102602F1111612F81E30E9461023D
:1024F000111103C0002309F4CDC180910002863080
:10250000B9F5E8E5F1E0149117FD98C161E086E0C6
:102510000E948F02112309F402C1123009F013C185
:102520008091B100887F83608093B10089E88093B7
:10253000B3004092D6045092D7046092D8047092AF
:10254000D9048091700082608093700077C161E748
:1025500072E00330110509F02AC389E596E00E9474
:1025600000090930110509F08DCF60E972E086CFCE
:102570008F3F09F063C186E080930002E8E5F1E057
:102580001491812F1F3F09F459C1123009F468C01A
:1025900060F4112379F1113009F444C087FD4EC174
:1025A00061E086E00E948F02B8CF143009F499C030
:1025B00008F478C0153091F7109220011092210193
:1025C00080912101886080932101809121018160A7
:1025D00080932101E3EFF1E0E491F0E0EE0FFF1FC3
:1025E000ED58FE4F85919491E9E3F2E0E491E09398
:1025F000C2048CCF14BC15BC84B5826084BD85B583
:10260000816085BDE3EFF1E0E491F0E0EE0FFF1FA4
:10261000ED58FE4F85919491E9E3F2E0E491E09367
:10262000C90474CF109280001092810080918100C3
:102630008860809381008091810081608093810017
:10264000E3EFF1E0E491F0E0EE0FFF1FED58FE4FF5
:1026500085919491E9E3F2E0E491E093C80456CFC8
:102660001092B0001092B1008091B000826080930F
:10267000B0008091B10081608093B100E3EFF1E0A0
:10268000E491F0E0EE0FFF1FED58FE4F859194911D
:102690009093C7048093C604E9E3F2E0E491E093E9
:1026A000C50434CF10929000109291008091910057
:1026B0008860809391008091910081608093910067
:1026C000E3EFF1E0E491F0E0EE0FFF1FED58FE4F75
:1026D00085919491E9E3F2E0E491E093C40413E07E
:1026E00015CF1092A0001092A1008091A1008860E7
:1026F0008093A1008091A10081608093A100E3EF0D
:10270000F1E0E491F0E0EE0FFF1FED58FE4F8591F0
:102710009491E9E3F2E0E491E093C304F7CE85B548
:10272000887F836085BD84E487BD4092DE0450923B
:10273000DF046092E0047092E10480916E00826098
:1027400080936E007BC01130D1F480918100887F2E
:102750008160809381008BE591E190938900809363
:1027600088004092DA045092DB046092DC0470929C
:10277000DD0480916F00826080936F005FC0133032
:10278000D1F480919100887F8160809391008BE5E6
:1027900091E190939900809398004092D2045092D6
:1027A000D3046092D4047092D50480917100826049
:1027B0008093710043C01430D1F48091A100887FD0
:1027C00081608093A1008BE591E19093A9008093B3
:1027D000A8004092CE045092CF046092D004709230
:1027E000D1048091720082608093720027C01530FE
:1027F000D1F480912101887F8160809321018BE554
:1028000091E190932901809328014092CA0450924B
:10281000CB046092CC047092CD04809173008260EE
:10282000809373000BC0123009F496C10CF089C17B
:10283000112309F48FC1113009F48DCF8091E50483
:10284000882331F06BE773E08CEB95E00E949308EE
:102850008091E404882331F06FE873E08CEB95E01D
:102860000E94930863EA73E08CEB95E00E94930862
:1028700040915D0650915E066091590670915A062E
:102880008CEB95E00E944F046FE472E08CEB95E0D6
:102890000E94260764EB73E08CEB95E00E9493089E
:1028A00060910E0570910F058091100590911105B2
:1028B00041E050E00E94A60767EC73E08CEB95E0E6
:1028C0000E94930842E050E060E070E080EA92E409
:1028D0000E94A60764ED73E08CEB95E00E949308DC
:1028E00060910A0570910B0580910C0590910D0582
:1028F00041E050E00E94A60763EE73E08CEB95E0A8
:102900000E94930860910605709107058091080563
:102910009091090541E050E00E94A6076FEE73E038
:102920008CEB95E00E94930886E30E94CB020E9404
:1029300076076BEF73E08CEB95E00E94930887E3DA
:102940000E94CB020E94760764E074E08CEB95E075
:102950000E94930842E050E060E070E080EA92E478
:102960000E94A60765E174E08CEB95E00E94930855
:102970006091EE047091EF048091F0049091F10465
:1029800043E050E00E94A60766E274E08CEB95E01D
:102990000E9493086091F2047091F3048091F40412
:1029A0009091F50443E050E00E94A60764E374E0D0
:1029B0008CEB95E00E9493086091020570910305ED
:1029C000809104059091050542E050E00E94A60721
:1029D0006CE374E08CEB95E00E9493086091FE0438
:1029E0007091FF04809100059091010542E050E054
:1029F0000E94A60764E474E08CEB95E00E949308C3
:102A00006091FA047091FB048091FC049091FD04A4
:102A100042E050E00E94A60760E574E08CEB95E090
:102A20000E9493086091F6047091F7048091F80475
:102A30009091F90442E050E00E94A6076CE574E032
:102A40008CEB95E00E9493086091EA047091EB048E
:102A50008091EC049091ED0441E050E00E94A607C3
:102A600069E674E08CEB95E00E9493086091E604BF
:102A70007091E7048091E8049091E90441E050E00E
:102A80000E94A60766E774E08CEB95E00E9493082D
:102A90008091E50411E0812790E00E9476076EE7BF
:102AA00074E08CEB95E00E9493088091E404812708
:102AB00090E00E94760766E874E08CEB95E00E9457
:102AC00093088091E50490E00E94760760E974E045
:102AD0008CEB95E00E9493088091E40490E00E94C2
:102AE00076076AE974E08CEB95E00E9493084091C8
:102AF0005D0650915E066091590670915A068CEB06
:102B000095E00E944F046DEA74E08CEB95E00E9422
:102B10007A0861EB74E08FE195E00E949308E09100
:102B2000E204F091E304EE0FFF1FEF5EFD4F6081C2
:102B300071818FE195E00E947A080E948E050C94C5
:102B40009B0C143009F43FCE0CF421CE153009F45F
:102B500056CE74CE8BE5E8CD8BE5E9CC6BE772E021
:102B600089E596E00E9400090091E2041091E304D7
:102B7000C801877F019721F0C8010397049718F4D3
:102B800081E08093E5040230110521F0C801079728
:102B90000297E8F481E08093E4040130110509F024
:102BA00058CC6FE673E089E596E00E940009043096
:102BB000110509F058CC63E872E0CFCC69E972E006
:102BC000CFCF63E872E0CCCF61E772E0C9CF0130CC
:102BD000110539F30830110509F0B9CC67E572E049
:102BE00089E596E00E94000962E672E0073011056F
:102BF00009F444CCB6CC6115710559F0A114B104A7
:102C000041F0FB01808190E0919581959109892B9C
:102C100021F4F092E304E092E204BFEFEB1AFB0A26
:102C2000E6E0CE0ED11CFAE0EF16F10409F0A0C8E0
:102C30008E01035C1F4F06501109C8010E942B0929
:102C400020163106C1F7CE01CD960E942B090C94B7
:102C50004F0D89E596E00C942B0991110C940917FE
:102C6000803219F089508550C8F708950E9478166F
:102C700008F481E00895E89409C097FB3EF490952C
:102C80008095709561957F4F8F4F9F4F9923A9F045
:102C9000F92F96E9BB279395F695879577956795D4
:102CA000B795F111F8CFFAF4BB0F11F460FF1BC018
:102CB0006F5F7F4F8F4F9F4F16C0882311F096E9AB
:102CC00011C0772321F09EE8872F762F05C0662359
:102CD00071F096E8862F70E060E02AF09A95660F12
:102CE000771F881FDAF7880F9695879597F90895CB
:102CF000990F0008550FAA0BE0E8FEEF161617060D
:102D0000E807F907C0F012161306E407F50798F074
:102D1000621B730B840B950B39F40A2661F0232B8D
:102D2000242B252B21F408950A2609F4A140A69509
:102D30008FEF811D811D08950E94AF160C942317FB
:102D40000E94151738F00E941C1720F0952311F0EF
:102D50000C940C170C94121711240C9457170E9402
:102D6000341770F3959FC1F3950F50E0551F629F84
:102D7000F001729FBB27F00DB11D639FAA27F00DD4
:102D8000B11DAA1F649F6627B00DA11D661F829FFB
:102D90002227B00DA11D621F739FB00DA11D621FE0
:102DA000839FA00D611D221F749F3327A00D611DFD
:102DB000231F849F600D211D822F762F6A2F1124DF
:102DC0009F5750409AF0F1F088234AF0EE0FFF1F12
:102DD000BB1F661F771F881F91505040A9F79E3F69
:102DE000510580F00C940C170C9457175F3FE4F3D7
:102DF000983ED4F3869577956795B795F795E795BF
:102E00009F5FC1F7FE2B880F911D9695879597F9C7
:102E1000089599278827089597F99F6780E870E0BB
:102E200060E008959FEF80EC089500240A94161640
:102E3000170618060906089500240A9412161306A8
:102E4000140605060895092E0394000C11F4882336
:102E500052F0BB0F40F4BF2B11F460FF04C06F5F52
:102E60007F4F8F4F9F4F089557FD9058440F551F28
:102E700059F05F3F71F04795880F97FB991F61F0FC
:102E80009F3F79F087950895121613061406551F73
:102E9000F2CF4695F1DF08C0161617061806991FDF
:102EA000F1CF86957105610508940895E894BB27D4
:102EB00066277727CB0197F908955058BB27AA2793
:102EC0000E9475170C9423170E94151738F00E9462
:102ED0001C1720F039F49F3F19F426F40C941217B4
:102EE0000EF4E095E7FB0C940C17E92F0E943417C1
:102EF00058F3BA17620773078407950720F079F42F
:102F0000A6F50C9456170EF4E0950B2EBA2FA02DB3
:102F10000B01B90190010C01CA01A0011124FF2786
:102F2000591B99F0593F50F4503E68F11A16F04081
:102F3000A22F232F342F4427585FF3CF4695379580
:102F40002795A795F0405395C9F77EF41F16BA0B45
:102F5000620B730B840BBAF09150A1F0FF0FBB1FF3
:102F6000661F771F881FC2F70EC0BA0F621F731F3C
:102F7000841F48F4879577956795B795F7959E3F99
:102F800008F0B0CF9395880F08F09927EE0F97952A
:102F9000879508950E94DE170C9423170E941C1732
:102FA00058F00E94151740F029F45F3F29F00C9467
:102FB0000C1751110C9457170C9412170E943417C8
:102FC00068F39923B1F3552391F3951B550BBB2758
:102FD000AA2762177307840738F09F5F5F4F220F9D
:102FE000331F441FAA1FA9F335D00E2E3AF0E0E894
:102FF00032D091505040E695001CCAF72BD0FE2FDE
:1030000029D0660F771F881FBB1F26173707480771
:10301000AB07B0E809F0BB0B802DBF01FF27935829
:103020005F4F3AF09E3F510578F00C940C170C94CA
:1030300057175F3FE4F3983ED4F3869577956795ED
:10304000B795F7959F5FC9F7880F911D969587955E
:1030500097F90895E1E0660F771F881FBB1F62177D
:1030600073078407BA0720F0621B730B840BBA0B3B
:10307000EE1F88F7E09508950E943C1788F09F574F
:1030800098F0B92F9927B751B0F0E1F0660F771F8C
:10309000881F991F1AF0BA95C9F714C0B13091F082
:1030A0000E945617B1E008950C945617672F782F99
:1030B0008827B85F39F0B93FCCF386957795679547
:1030C000B395D9F73EF490958095709561957F4FB3
:1030D0008F4F9F4F08950E94781608F48FEF089540
:1030E0000E947816880B990B0895A1E21A2EAA1B4C
:1030F000BB1BFD010DC0AA1FBB1FEE1FFF1FA217A8
:10310000B307E407F50720F0A21BB30BE40BF50BA4
:10311000661F771F881F991F1A9469F7609570952D
:10312000809590959B01AC01BD01CF010895EE0FF4
:10313000FF1F881F8BBF0790F691E02D19940F9306
:103140001F93CF93DF938230910510F482E090E0DB
:10315000E0918C06F0918D0630E020E0B0E0A0E038
:10316000309799F42115310509F44AC0281B390B11
:1031700024303105D8F58A819B816115710589F16B
:10318000FB0193838283FE0111C040815181028142
:10319000138148175907E0F04817590799F4109719
:1031A00061F012960C93129713961C933296CF01EE
:1031B000DF91CF911F910F91089500938C0610938A
:1031C0008D06F4CF2115310551F04217530738F021
:1031D000A901DB019A01BD01DF01F801C1CFEF01B7
:1031E000F9CF90938D0680938C06CDCFFE01E20F30
:1031F000F31F819391932250310939832883D7CFCC
:1032000020918A0630918B06232B41F420910302F2
:103210003091040230938B0620938A06209101029C
:10322000309102022115310541F42DB73EB740918E
:10323000050250910602241B350BE0918A06F0919D
:103240008B06E217F307A0F42E1B3F0B2817390754
:1032500078F0AC014E5F5F4F2417350748F04E0FF2
:103260005F1F50938B0640938A06819391939FCF63
:10327000F0E0E0E09CCFCF93DF930097E9F0FC0112
:10328000329713821282A0918C06B0918D06ED01C7
:1032900030E020E01097A1F420813181820F931F4C
:1032A00020918A0630918B062817390709F061C0F2
:1032B000F0938B06E0938A06DF91CF910895EA019F
:1032C000CE17DF07E8F54A815B819E014115510564
:1032D000B1F7E901FB83EA8349915991C40FD51FE6
:1032E000EC17FD0761F4808191810296840F951F90
:1032F000E90199838883828193819B838A83F0E0AB
:10330000E0E012968D919C9113970097B9F52D915D
:103310003C911197CD010296820F931F20918A064E
:1033200030918B062817390739F6309751F51092EE
:103330008D0610928C06B0938B06A0938A06BCCFA4
:10334000D383C28340815181840F951FC817D90749
:1033500061F44E5F5F4F88819981480F591F5183F7
:1033600040838A819B81938382832115310509F0F3
:10337000B0CFF0938D06E0938C069ECFFD01DC016B
:10338000C0CF13821282D7CF4F925F926F927F92FB
:103390008F929F92AF92BF92CF92DF92EF92FF9265
:1033A0000F931F93CF93DF938C01009799F4CB0178
:1033B000DF91CF911F910F91FF90EF90DF90CF9011
:1033C000BF90AF909F908F907F906F905F904F9045
:1033D0000C949F18FC01E60FF71F9C012250310945
:1033E000E217F30708F4AEC0D901CD91DC91119733
:1033F000C617D70720F1C530D10578F0CE01049764
:103400008617970750F0C61BD70B2297C193D1930D
:103410006D937C93CF010E943B19C801DF91CF913E
:103420001F910F91FF90EF90DF90CF90BF90AF90E2
:103430009F908F907F906F905F904F9008955B0169
:10344000AC1ABD0A4C018C0E9D1EA0918C06B09149
:103450008D06512C412CF12CE12C109731F58091E7
:103460008A0690918B068815990509F05CC046166E
:10347000570608F058C0809101029091020200970F
:1034800041F48DB79EB74091050250910602841B0E
:10349000950BE817F90708F055C0F0938B06E093F9
:1034A0008A06F90171836083B8CF8D919C91119741
:1034B00012966C90129713967C901397A815B905E5
:1034C00059F56C0142E0C40ED11CCA14DB0420F192
:1034D000AC014A195B09DA011296159780F06282F5
:1034E000738251834083D9016D937C93E114F1047D
:1034F00071F0D7011396FC93EE9312978ECF22961C
:103500008C0F9D1FF90191838083F301EFCFF0931E
:103510008D06E0938C0681CF4816590608F42C01DD
:103520007D01D3019ACFCB010E949F187C010097A7
:1035300049F0AE01B8010E94AD1AC8010E943B19C2
:1035400087016BCF10E000E068CF9111089581569C
:103550008A5108F4805285580895FB01DC0102C0AD
:1035600001900D9241505040D8F70895FB01DC01C5
:103570008D91019080190110D9F3990B0895FB01E9
:10358000DC0101900D920020E1F70895FB01DC01C0
:103590004150504030F08D910190801919F4002075
:1035A000B9F7881B990B089511E0CEE3D1E000E054
:1035B00006C0802FFE010E9497182196011DCF336F
:1035C000D10780E00807A9F7F894FFCFFF00008E2D
:1035D00006800028292A2B2C2D2E2F303147034E10
:1035E000035A03710283027B029902620257026648
:1035F000030000000021054F047C046E05DF048BEE
:1036000004D1040000000020074F04BC05BB056E78
:10361000616E00696E66006F7666000D0A004E4F9F
:103620004E4500434F494C5F4641554C540052585B
:103630005F4C4F53530053454E534F52004F564526
:10364000525F54454D50004C4F575F425553004F09
:103650005645525F43555252454E540044495354C7
:10366000414E434500484947485F42555300544541
:10367000534C41582C424F4F542C4D454741323505
:1036800036300054455354204E4F524D414C7C45EA
:103690004E445F415F4641554C547C454E445F4229
:1036A0005F4641554C547C4F5645525F54454D50F2
:1036B0007C4F5645525F43555252454E547C4C4FB9
:1036C000575F4255537C484947485F4255537C52A7
:1036D000585F4C4F53537C434F494C5F4641554CC8
:1036E000547C4F42535441434C453B205354415426
:1036F00055533B20434C4541523B2048454C5000DC
:10370000434C454152005354415455530054455382
:103710005420004E4F524D414C00454E445F415F96
:103720004641554C5400454E445F425F4641554C1E
:1037300054004F42535441434C4500454E445F4171
:1037400000454E445F42005445534C41582C46417D
:10375000554C542C454E445F412C005445534C412C
:10376000582C4641554C542C454E445F422C005435
:1037700045534C41582C53485554444F574E2C00F8
:103780005445534C4158207B2064697374616E63C7
:10379000653A002C20616C69676E6D656E743A0045
:1037A0002C2074656D70657261747572653A002CB9
:1037B0002068756D69646974793A002C206D6F69B1
:1037C00073747572653A002C206C696768743A00EE
:1037D0002C207472616E736D69744C6576656C3AF9
:1037E000002C2072656365697665644C6576656C4E
:1037F0003A002C20656666696369656E63793A00F4
:103800002C20627573413A002C20627573423A0095
:103810002C2063757272656E74413A002C206375BA
:103820007272656E74423A002C20636F696C415469
:10383000656D703A002C20636F696C4254656D7041
:103840003A002C20656E64413A002C20656E64427B
:103850003A002C206661756C74413A002C20666138
:10386000756C74423A002C2073687574646F776EBF
:10387000526561736F6E3A220022207D00544553D9
:0E3880004C41585F47415445574159200000C4
:020000040003F7
:10E000000D9489F10D94B2F10D94B2F10D94B2F129
:10E010000D94B2F10D94B2F10D94B2F10D94B2F1F0
:10E020000D94B2F10D94B2F10D94B2F10D94B2F1E0
:10E030000D94B2F10D94B2F10D94B2F10D94B2F1D0
:10E040000D94B2F10D94B2F10D94B2F10D94B2F1C0
:10E050000D94B2F10D94B2F10D94B2F10D94B2F1B0
:10E060000D94B2F10D94B2F10D94B2F10D94B2F1A0
:10E070000D94B2F10D94B2F10D94B2F10D94B2F190
:10E080000D94B2F10D94B2F10D94B2F10D94B2F180
:10E090000D94B2F10D94B2F10D94B2F10D94B2F170
:10E0A0000D94B2F10D94B2F10D94B2F10D94B2F160
:10E0B0000D94B2F10D94B2F10D94B2F10D94B2F150
:10E0C0000D94B2F10D94B2F10D94B2F10D94B2F140
:10E0D0000D94B2F10D94B2F10D94B2F10D94B2F130
:10E0E0000D94B2F141546D656761323536300041AF
:10E0F000726475696E6F206578706C6F72657220DE
:10E1000073746B3530305632206279204D4C530099
:10E11000426F6F746C6F616465723E004875683F52
:10E1200000436F6D70696C6564206F6E203D200048
:10E130004350552054797065202020203D20005FF9
:10E140005F4156525F415243485F5F3D2000415658
:10E1500052204C696243205665723D20004743437C
:10E160002056657273696F6E203D20004350552024
:10E1700049442020202020203D20004C6F7720663D
:10E18000757365202020203D20004869676820665F
:10E190007573652020203D200045787420667573D6
:10E1A00065202020203D20004C6F636B2066757336
:10E1B000652020203D20004D617220203720323024
:10E1C000313300312E362E3800342E332E350056A2
:10E1D00023202020414444522020206F7020636F70
:10E1E00064652020202020696E73747275637469E1
:10E1F0006F6E2061646472202020496E74657272B3
:10E20000757074006E6F20766563746F7200726A49
:10E210006D702020006A6D70200057686174207056
:10E220006F72743A00506F7274206E6F7420737541
:10E2300070706F72746564004D7573742062652030
:10E2400061206C6574746572002000577269747483
:10E25000696E672045450052656164696E672045B7
:10E26000450045452065727220636E743D00504F35
:10E27000525400303D5A65726F2061646472003FF1
:10E280003D43505520737461747300403D454550C3
:10E29000524F4D207465737400423D426C696E6B41
:10E2A000204C454400453D44756D70204545505215
:10E2B0004F4D00463D44756D7020464C415348001B
:10E2C000483D48656C70004C3D4C69737420492F83
:10E2D0004F20506F72747300513D51756974005234
:10E2E0003D44756D702052414D00563D73686F7707
:10E2F00020696E7465727275707420566563746FF0
:10E30000727300593D506F727420626C696E6B00BD
:10E310002A0011241FBECFEFD1E2DEBFCDBF01E046
:10E320000CBF12E0A0E0B2E0EEE1FDEF03E00BBFB6
:10E3300002C007900D92A030B107D9F712E0A0E01B
:10E34000B2E001C01D92AE30B107E1F70F9460F367
:10E350000D948DFE01E20EBF0FEF0DBF11241FBE05
:10E360000D9460F30D9400F020E030E040ED57E0B4
:10E3700005C0FA013197F1F72F5F3F4F2817390792
:10E38000C0F308959C01260F311DC901A0E0B0E043
:10E390002F5F3F4FABBFFC018791882361F08093D3
:10E3A000C6008091C00086FFFCCF8091C0008064D1
:10E3B0008093C000EACF08958DE08093C6008091DD
:10E3C000C00086FFFCCF8091C00080648093C000B5
:10E3D0008AE08093C6008091C00086FFFCCF8091C8
:10E3E000C00080648093C00008950F94C2F10F9420
:10E3F000DCF10895FC019081992359F09093C600B7
:10E400008091C00086FFFCCF8091C0008064809323
:10E41000C0003196992379F70895282F982F929567
:10E420009F70892F805D8A3308F0895F8093C600D2
:10E430008091C00086FFFCCF8091C00080648093F3
:10E44000C000822F8F70982F905D9A3308F0995FEB
:10E450009093C6008091C00086FFFCCF8091C000E1
:10E4600080648093C00008959C01FB01853691056E
:10E470001CF46330710594F0C90164E670E00F94F8
:10E480002EFE605D7F4F6093C6008091C00086FFC6
:10E49000FCCF8091C00080648093C0002B30310598
:10E4A00014F43297B4F0C90164E670E00F942EFEC4
:10E4B0006AE070E00F942EFE605D7F4F6093C600AF
:10E4C0008091C00086FFFCCF8091C0008064809363
:10E4D000C000C9016AE070E00F942EFEC0968093E0
:10E4E000C6008091C00086FFFCCF8091C000806490
:10E4F0008093C00008951F93182F8EE692EE60E07F
:10E500000F94C2F11093C6008091C00086FFFCCF2B
:10E510008091C00080648093C0000F94DCF11F9153
:10E5200008952F923F924F925F926F927F928F92B7
:10E530009F92AF92BF92CF92DF92EF92FF920F9392
:10E540001F93DF93CF93CDB7DEB762970FB6F894E2
:10E55000DEBF0FBECDBF382E622ECA01DB015C01CB
:10E560006D01772420E2222E2E010894411C511CBB
:10E570008BC081E0A81680E0B80681E0C80680E084
:10E58000D80628F0C601AA27BB270F940DF2BB2797
:10E59000AD2D9C2D8B2D0F940DF28A2D0F940DF225
:10E5A0002092C6008091C00086FFFCCF8091C00001
:10E5B00080648093C0009DE29093C6008091C0006B
:10E5C00086FFFCCF8091C00080648093C0002092C1
:10E5D000C6008091C00086FFFCCF8091C00080649F
:10E5E0008093C00019828601750188249924A1E0D6
:10E5F0003A1651F03A1620F0B2E03B1661F409C029
:10E600000BBFF701779007C0C7010F9477FE782EF4
:10E6100002C0F7017080872D0F940DF22092C60082
:10E620008091C00086FFFCCF8091C0008064809301
:10E63000C000872D8052F401EF70F0708F3520F408
:10E64000E40DF51D708204C0E40DF51D8EE280839B
:10E650000894E11CF11C011D111D0894811C911CE2
:10E6600090E18916910409F0C2CF80E190E0A0E02A
:10E67000B0E0A80EB91ECA1EDB1E198AC2010F9493
:10E68000FAF10F94DCF16A94662009F072CF629679
:10E690000FB6F894DEBF0FBECDBFCF91DF911F91B3
:10E6A0000F91FF90EF90DF90CF90BF90AF909F9031
:10E6B0008F907F906F905F904F903F902F90089534
:10E6C0002F923F924F925F926F927F928F929F9282
:10E6D000AF92BF92CF92DF92EF92FF920F931F9370
:10E6E000DF93CF93CDB7DEB7CD53D1400FB6F894BB
:10E6F000DEBF0FBECDBF01E20EBF0FEF0DBF94B75F
:10E70000F894A89514BE80916000886180936000A1
:10E7100010926000789493FF05C0E0910002F091A0
:10E7200001021995279A2F9A8091C00082608093E8
:10E73000C00080E18093C40088E18093C1000000A4
:10E74000EE24FF24870144E0A42EB12CCC24DD2448
:10E7500024C0C5010197F1F70894E11CF11C011DCB
:10E76000111D21E2E2162EE4F20620E0020720E06D
:10E77000120718F031E0C32ED12CC801B70127ECE5
:10E780003BE140E050E00F9441FE611571058105C9
:10E79000910519F485B1805885B98091C00087FD35
:10E7A00003C0C114D104A9F2A6014F5F5F4FC25E3E
:10E7B000DE4F59834883CE51D140C25EDE4F8881FF
:10E7C0009981CE51D140019711F00D9410FEC05D9A
:10E7D000DE4F19821882C053D14060E0C15DDE4F28
:10E7E0001882CF52D14088249924C35DDE4F19820C
:10E7F0001882CD52D140C05EDE4F188219821A8233
:10E800001B82C052D140CE5CDE4F188219821A8220
:10E810001B82C253D140EE24FF2487010BBFF701B6
:10E8200007911691C45CDE4F19830883CC53D14005
:10E830000D940BFEC25EDE4F28813981CE51D1404E
:10E840002130310509F52091C600C25EDE4F1982E4
:10E850001882CE51D14022C02F5F3F4F4F4F5F4FA4
:10E86000213082E138078AE7480780E0580780F0C6
:10E87000C45CDE4FE881F981CC53D140EF5FFF4F9C
:10E8800019F0EE27FF27099420E030E040E050E047
:10E890008091C00087FFE0CF2091C600C35DDE4FAE
:10E8A00048815981CD52D1404F5F5F4FC35DDE4FEC
:10E8B00059834883CD52D140213209F063C64A3092
:10E8C000510508F05FC60894811C911C53E0851621
:10E8D000910409F059C600E010E018C081E280936D
:10E8E000C6008091C00086FFFCCF8091C00080648C
:10E8F0008093C0002F5F3F4F2931310579F70F9486
:10E90000DCF10F5F1F4F0530110519F020E030E0FA
:10E91000E5CF10920A0210920B0210920C02109294
:10E920000D02109206021092070210920802109235
:10E930000902109202021092030210920402109235
:10E9400005028FEE90EE60E00F94F5F180E191EE1C
:10E9500060E00F94C2F18091C00087FFFCCF9091DE
:10E96000C600903608F09F759032B8F09093C600BC
:10E970008091C00086FFFCCF8091C00080648093AE
:10E98000C000A0E2A093C6008091C00086FFFCCF2B
:10E990008091C00080648093C000983409F4D7C18E
:10E9A0009934B8F4923409F459C1933458F490333B
:10E9B00019F1903308F4E3C59F33A1F1903409F0C5
:10E9C000DEC5BDC0953409F470C1963409F0D7C5D1
:10E9D00098C1923509F42BC2933538F49C3409F46C
:10E9E000F5C1913509F0CBC518C2963509F445C279
:10E9F000993509F0C4C567C483E792EE62E00F94CD
:10EA0000F5F110920602109207021092080210927D
:10EA1000090210920A0210920B0210920C0210923C
:10EA20000D0213C18FE792EE62E00F94F5F18FEEC5
:10EA300090EE60E00F94F5F181E291EE60E00F94CA
:10EA4000C2F187EB91EE60E00F94F5F180E391EE77
:10EA500060E00F94C2F184EE90EE60E00F94F5F167
:10EA60008FE391EE60E00F94C2F186E090E061E008
:10EA700070E00F9434F20F94DCF18DE591EE60E0DC
:10EA80000F94C2F189EC91EE60E00F94F5F18EE401
:10EA900091EE60E00F94C2F183EC91EE60E00F9490
:10EAA000F5F18CE691EE60E00F94C2F18EE10F94E7
:10EAB0000DF288E90F940DF281E00F940DF20F949E
:10EAC000DCF18BE791EE60E00F94C2F119E0E0E039
:10EAD000F0E010935700E4918E2F0F940DF20F94F5
:10EAE000DCF18AE891EE60E00F94C2F1E3E0F0E03F
:10EAF00010935700E4918E2F0F940DF20F94DCF1D8
:10EB000089E991EE60E00F94C2F1E2E0F0E0109349
:10EB10005700E4918E2F0F940DF20F94DCF188EAE8
:10EB200091EE60E00F94C2F1E1E0F0E01093570045
:10EB30001491812F0F940DF20F94DCF107CF8BE825
:10EB400092EE62E00F94F5F18BE492EE60E00F94A8
:10EB5000F5F10F94DCF100E010E019C0C8016F2D51
:10EB60000F947FFEFF2031F489E492EE60E00F9471
:10EB7000C2F10BC0F092C6008091C00086FFFCCFAE
:10EB80008091C00080648093C0000F5F1F4FC80158
:10EB900081519F41A0E0B0E0ABBFFC01F790BAE229
:10EBA000FB1621F0E2E000301E07C1F60F94DCF105
:10EBB0000F94DCF187E592EE60E00F94F5F10F948D
:10EBC000DCF1CC24DD2400E010E01EC0C8010F946D
:10EBD00077FEF82E882331F489E492EE60E00F94FA
:10EBE000C2F10BC08093C6008091C00086FFFCCFAD
:10EBF0008091C00080648093C000FE1419F00894D6
:10EC0000C11CD11C0F5F1F4FC80181519F41A0E063
:10EC1000B0E0ABBFFC01E790FAE2EF1621F022E092
:10EC20000030120799F60F94DCF10F94DCF182E6C4
:10EC300092EE60E00F94C2F1C60161E070E00F94C3
:10EC400034F20F94DCF10F94DCF110920202109276
:10EC50000302109204021092050278CE89E992EE26
:10EC600062E00F94F5F1279A2F9A16C02F9880E052
:10EC700090E0E0EDF7E03197F1F7019684369105E9
:10EC8000C1F72F9A80E090E0E0EDF7E03197F1F7DF
:10EC9000019684369105C1F78091C00087FFE6CFC9
:10ECA0008091C00087FFFCCF64C485EA92EE62E0E9
:10ECB0000F94F5F140910202509103026091040219
:10ECC0007091050281E020E10F9491F2809102029F
:10ECD00090910302A0910402B091050280509F4FD1
:10ECE000AF4FBF4F8093020290930302A0930402A0
:10ECF000B093050280509041A040B04008F426CE69
:10ED0000A4CF83EB92EE62E00F94F5F140910602FE
:10ED100050910702609108027091090280E020E1A1
:10ED20000F9491F28091060290910702A09108023F
:10ED3000B091090280509F4FAF4FBF4F80930602A2
:10ED400090930702A0930802B0930902FFCD80ECD4
:10ED500092EE62E00F94F5F183E792EE60E00F949B
:10ED6000F5F18FE792EE60E00F94F5F18BE892EE0B
:10ED700060E00F94F5F189E992EE60E00F94F5F10F
:10ED800085EA92EE60E00F94F5F183EB92EE60E09D
:10ED90000F94F5F180EC92EE60E00F94F5F187ECC2
:10EDA00092EE60E00F94F5F188ED92EE60E00F9442
:10EDB000F5F18FED92EE60E00F94F5F18AEE92EEB0
:10EDC00060E00F94F5F183E093EEBDCD87EC92EE19
:10EDD00062E00F94F5F181E40F947BF282E40F94EA
:10EDE0007BF283E40F947BF284E40F947BF285E45E
:10EDF0000F947BF286E40F947BF287E40F947BF20E
:10EE000088E40F947BF28AE40F947BF28BE40F94F6
:10EE10007BF28CE40F947BF299CD88ED92EE62E068
:10EE20000F94F5F1772473948824992409C48FED05
:10EE300092EE62E00F94F5F140910A0250910B02BC
:10EE400060910C0270910D0282E020E10F9491F22A
:10EE500080910A0290910B02A0910C02B0910D02D8
:10EE600080509F4FAF4FBF4F80930A0290930B0289
:10EE7000A0930C02B0930D0269CD8AEE92EE62E08F
:10EE80000F94F5F184EE90EE60E00F94F5F18FECC5
:10EE900091EE60E00F94F5F1662477244301CC5D98
:10EEA000DE4F19821882C452D140D401C301B695F5
:10EEB000A79597958795CA5DDE4F88839983AA8326
:10EEC000BB83C652D140CC5DDE4FA881B981C4520C
:10EED000D1401196CC5DDE4FB983A883C452D14096
:10EEE000CD0162E070E00F9434F2B0E2B093C6005E
:10EEF0008091C00086FFFCCF8091C0008064809329
:10EF0000C000EDE2E093C6008091C00086FFFCCF18
:10EF10008091C00080648093C000F0E2F093C6004E
:10EF20008091C00086FFFCCF8091C00080648093F8
:10EF3000C000CA5DDE4FE880F9800A811B81C6529D
:10EF4000D140BB27A12F902F8F2D0F940DF2CA5DBA
:10EF5000DE4F8881C652D1400F940DF2B0E2FB2EF5
:10EF6000F092C6008091C00086FFFCCF8091C00067
:10EF700080648093C0000DE30093C6008091C000C0
:10EF800086FFFCCF8091C00080648093C00010E2B7
:10EF90001093C6008091C00086FFFCCF8091C00016
:10EFA00080648093C0008BBEF3012791C65DDE4F65
:10EFB0002883CA52D140A22EBB24CC24DD2408943D
:10EFC000611C711C811C911C8BBEF3018791282E42
:10EFD0003324442455240894611C711C811C911C09
:10EFE0008BBEF3013791C55DDE4F3883CB52D140E4
:10EFF0000894611C711C811C911C8BBEF30147910C
:10F00000C45DDE4F4883CC52D140ADEFEA2EAFEF66
:10F01000FA2EAFEF0A2FAFEF1A2F6E0C7F1C801E57
:10F02000911E142D032DF22CEE24EA0CFB1C0C1D5A
:10F030001D1D0F940DF220E22093C6008091C000A8
:10F0400086FFFCCF8091C00080648093C000C65DC5
:10F05000DE4F8881CA52D1400F940DF230E23093D6
:10F06000C6008091C00086FFFCCF8091C000806404
:10F070008093C000C45DDE4F8881CC52D1400F9494
:10F080000DF240E24093C6008091C00086FFFCCFA5
:10F090008091C00080648093C000C55DDE4F888190
:10F0A000CB52D1400F940DF250E25093C6008091A4
:10F0B000C00086FFFCCF8091C00080648093C000B8
:10F0C0008FEFE8168FEFF80680E0080780E018075A
:10F0D00031F484E092EE60E00F94C2F1DFC0D80119
:10F0E000C7018070907CA070B0708050904CA040A0
:10F0F000B040D1F52FEF3FE340E050E0E222F322B1
:10F1000004231523CA5DDE4FA880B980CA80DB8046
:10F11000C652D140AE0CBF1CC01ED11EAA0CBB1CD7
:10F12000CC1CDD1C8EE092EE60E00F94C2F1BB2798
:10F13000A12F902F8F2D0F940DF28E2D0F940DF285
:10F1400030E23093C6008091C00086FFFCCF8091F2
:10F15000C00080648093C0004EE34093C60080915D
:10F16000C00086FFFCCF87C08EE09EEFA0E0B0E03D
:10F17000E822F9220A231B239CE0E91694E9F90608
:10F1800090E0090790E0190709F088C0C45DDE4FE0
:10F19000A881CC52D140EA2EFF2400E010E0102FCD
:10F1A0000F2DFE2CEE24C55DDE4FB881CB52D14031
:10F1B000EB0EF11C011D111DD601C501817090706F
:10F1C000A070B070DC0199278827E80EF91E0A1F8D
:10F1D0001B1F20EF30E040E050E0A222B322C42207
:10F1E000D52241E1AA0CBB1CCC1CDD1C4A95D1F7F1
:10F1F000EA0CFB1C0C1D1D1D81E090E0A0E0B0E0BE
:10F20000282239224A225B2235E1220C331C441C7D
:10F21000551C3A95D1F7E20CF31C041D151D57013E
:10F220006801AA0CBB1CCC1CDD1C85E192EE60E0E1
:10F230000F94C2F1C801AA27BB270F940DF2BB2778
:10F24000A12F902F8F2D0F940DF28E2D0F940DF274
:10F2500090E29093C6008091C00086FFFCCF809121
:10F26000C00080648093C000AEE3A093C60080918C
:10F27000C00086FFFCCF8091C00080648093C000F6
:10F28000C601AA27BB270F940DF2BB27AD2D9C2DDD
:10F290008B2D0F940DF28A2D0F940DF20F94DCF14B
:10F2A000CC5DDE4FE881F981C452D140F99709F471
:10F2B0004DCBF4E0EF2EF12C012D112D6E0C7F1CA7
:10F2C000801E911EF2CD83E093EE62E00F94F5F183
:10F2D0008AE192EE60E00F94C2F18091C00087FF56
:10F2E000FCCF1091C6001F751093C6008091C0001E
:10F2F00086FFFCCF8091C00080648093C0000F9493
:10F30000DCF1812F81548A3108F036C1163409F4BA
:10F3100095C0173490F4133409F44EC0143430F40B
:10F320001134F1F0123409F01DC130C0143409F465
:10F3300059C0153409F016C16BC01A3409F4C4C0A1
:10F340001B3438F4173409F48FC0183409F00AC19B
:10F35000A1C01B3409F4D2C01C3409F003C1E8C0B9
:10F360008FEF81B90DC082B1809582B980E090E0C5
:10F37000E0EDF7E03197F1F70196883C9105C1F790
:10F380008091C00087FFEFCF12B8EFC08FEF84B934
:10F390000DC085B1809585B980E090E0E0EDF7E0A3
:10F3A0003197F1F70196883C9105C1F78091C00033
:10F3B00087FFEFCF15B8D9C08FEF87B90DC088B1DF
:10F3C000809588B980E090E0E0EDF7E03197F1F7C3
:10F3D0000196883C9105C1F78091C00087FFEFCF6F
:10F3E00018B8C3C08FEF8AB90DC08BB180958BB9A7
:10F3F00080E090E0E0EDF7E03197F1F70196883C8E
:10F400009105C1F78091C00087FFEFCF1BB8ADC059
:10F410008FEF8DB90DC08EB180958EB980E090E0F0
:10F42000E0EDF7E03197F1F70196883C9105C1F7DF
:10F430008091C00087FFEFCF1EB897C08FEF80BBD1
:10F440000DC081B3809581BB80E090E0E0EDF7E0F6
:10F450003197F1F70196883C9105C1F78091C00082
:10F4600087FFEFCF11BA81C08FEF83BB0DC084B38C
:10F47000809584BB80E090E0E0EDF7E03197F1F714
:10F480000196883C9105C1F78091C00087FFEFCFBE
:10F4900014BA6BC08FEF809301010FC080910201FD
:10F4A00080958093020180E090E0E0EDF7E03197F5
:10F4B000F1F70196883C9105C1F78091C00087FF64
:10F4C000EDCF1092020151C08FEF809304010FC065
:10F4D0008091050180958093050180E090E0E0ED4A
:10F4E000F7E03197F1F70196883C9105C1F78091DB
:10F4F000C00087FFEDCF1092050137C08FEF8093DA
:10F5000007010FC08091080180958093080180E079
:10F5100090E0E0EDF7E03197F1F70196883C910536
:10F52000C1F78091C00087FFEDCF109208011DC088
:10F530008FEF80930A010FC080910B01809580931B
:10F540000B0180E090E0E0EDF7E03197F1F70196F4
:10F55000883C9105C1F78091C00087FFEDCF1092E4
:10F560000B0103C085E292EEEEC98091C00087FFD7
:10F57000FCCF8091C600EAC988E392EEE4C98CE131
:10F5800091EEE1C988249924933011F1943028F444
:10F59000913089F09230B8F408C0953061F195301F
:10F5A000F0F0963009F048C043C02B3109F042C951
:10F5B00091E06BE13FC96227C15DDE4F2883CF52E6
:10F5C000D14092E037C9B22FA0E0622793E032C960
:10F5D000822F90E0A82BB92B622794E02BC92E3004
:10F5E00009F039C3622795E0C05DDE4F19821882A9
:10F5F000C053D1401FC9E1E0F0E0EC0FFD1FC05D3A
:10F60000DE4F08811981C053D140E00FF11F2083E4
:10F610000F5F1F4FC05DDE4F19830883C053D14079
:10F6200062270A171B0709F005C9D80196E002C92D
:10F63000261709F010C303C0973009F0FBC87724E0
:10F640009981933109F412C19431C8F4963009F4C8
:10F65000D8C0973050F4923009F406C1933009F4C1
:10F660006DC0913009F059C253C0913109F477C08F
:10F67000923108F0BBC0903109F04FC2F5C098310B
:10F6800009F487C0993150F4953109F4EFC09531F0
:10F6900008F4C6C1963109F040C2C2C19A3109F4DA
:10F6A0006CC09A3108F491C09B3109F45BC09D3164
:10F6B00009F033C29D81903359F48F81882311F46E
:10F6C0009EE11CC0813011F091E018C098E916C08D
:10F6D000892F807591F0903539F4E0E0F0E089E011
:10F6E0008093570094910AC0983539F4E3E0F0E034
:10F6F00089E080935700949101C090E01A821B82A8
:10F700008D818C831D829E831F8227E030E009C299
:10F710001A8288E08B8381E48C8386E58D8382E581
:10F720008E8389E48F8383E5888780E589878FE5E9
:10F730008A8782E38B872BE030E0F3C18A818139AD
:10F7400041F0823941F0803911F48FE005C080E04A
:10F7500003C082E001C08AE01A828B8344C0772410
:10F76000739482C08D81882311F48EE12CC0813086
:10F7700011F081E028C088E926C01A82E1E0F0E0BB
:10F7800089E08093570084918B831C8224E030E0D1
:10F79000C8C18B81803589F48C81883039F4E2E0EE
:10F7A000F0E089E08093570084910DC0E0E0F0E044
:10F7B00089E080935700849106C0E3E0F0E089E09F
:10F7C0008093570084911A82DFCF8D81836C99E0FA
:10F7D000E1E0F0E0082E90935700E89507B600FCB2
:10F7E000FDCF1A821B8223E030E09BC180EC8A832C
:10F7F000CE5CDE4F188219821A821B82C253D1401E
:10F800008EC18A8190E0A0E0B0E0582F44273327D2
:10F8100022278B8190E0A0E0B0E0DC0199278827C7
:10F82000282B392B4A2B5B2B8D8190E0A0E0B0E098
:10F83000282B392B4A2B5B2B8C8190E0A0E0B0E089
:10F84000BA2FA92F982F8827282B392B4A2B5B2BCF
:10F85000220F331F441F551FC05EDE4F288339839C
:10F860004A835B83C052D1401A8259C13A81C95C34
:10F87000DE4F3883C753D140CA5CDE4F1882C6536F
:10F88000D1408B81C82EDD24CA5CDE4F488159816E
:10F89000C653D140C42AD52A933109F082C0CE5C28
:10F8A000DE4F88819981AA81BB81C253D1408050AB
:10F8B000904CA340B04030F583E0CE5CDE4FE88052
:10F8C000F9800A811B81C253D140F70100935B008C
:10F8D00080935700E89507B600FCFDCFCE5CDE4F65
:10F8E000088119812A813B81C253D14000501F4FAA
:10F8F0002F4F3F4FCE5CDE4F088319832A833B8313
:10F90000C253D140C05EDE4F488159816A817B81FC
:10F91000C052D140DE011B9631E08C9111962C91A2
:10F9200011971296C75CDE4F2883C953D140C85C3B
:10F93000DE4F1882C853D14090E0C85CDE4FE881AA
:10F94000F981C853D1408E2B9F2B0C01FA01609393
:10F950005B0030935700E89511244E5F5F4F6F4F67
:10F960007F4F0EEFE02E0FEFF02ECE0CDF1CC114F8
:10F97000D10499F685E0C05EDE4F088119812A81A5
:10F980003B81C052D140F80120935B008093570027
:10F99000E89507B600FCFDCF81E180935700E8951C
:10F9A00035C0C05EDE4F88819981AA81BB81C0527B
:10F9B000D140B695A795979587957C018601ABE0D8
:10F9C000AA2EB12CAC0EBD1E0BC0D5016D915D01F0
:10F9D000C7010F947FFE0894E11CF11C01501040F8
:10F9E0000115110591F7A60160E070E0440F551F65
:10F9F000661F771FC05EDE4FE880F9800A811B8199
:10FA0000C052D1404E0D5F1D601F711F1A82C05E33
:10FA1000DE4F488359836A837B83C052D1407FC0C5
:10FA2000FA80C55CDE4FF882CB53D140C65CDE4F16
:10FA30001882CA53D1408B81C82EDD24C65CDE4FAC
:10FA400008811981CA53D140C02AD12A1A828981DA
:10FA5000BE016D5F7F4F843121F59601C05EDE4FA0
:10FA6000E880F9800A811B81C052D1400BBFF701A9
:10FA700087919691DB018C9311969C936E5F7F4FDB
:10FA8000D801C7010296A11DB11DC05EDE4F88835B
:10FA90009983AA83BB83C052D14022503040F1F6F3
:10FAA00036C0C05EDE4F288139814A815B81C052F9
:10FAB000D1400894C108D108760100E010E0089414
:10FAC000C11CD11C0894E11CF11C011D111DE20E8A
:10FAD000F31E041F151F21BDBB27A52F942F832FB5
:10FAE00082BD2F5F3F4F4F4F5F4FF89A80B5DB01CC
:10FAF0008D93BD012E153F054007510761F7C05E8C
:10FB0000DE4F288339834A835B83C052D1409601FC
:10FB10002D5F3F4FFB01108204C080EC8A8322E0FE
:10FB200030E08BE18093C6008091C00086FFFCCF5F
:10FB30008091C00080648093C000C15DDE4FF88179
:10FB4000CF52D140F093C6008091C00086FFFCCF19
:10FB50008091C00080648093C000432F3093C60022
:10FB60008091C00086FFFCCF8091C00080648093AC
:10FB7000C000922F2093C6008091C00086FFFCCF6A
:10FB80008091C00080648093C0008EE08093C600A6
:10FB90008091C00086FFFCCF8091C000806480937C
:10FBA000C00065E1C15DDE4FE880CF52D1406E25D7
:10FBB00069276427FE01319610C090819093C6009A
:10FBC0008091C00086FFFCCF31968091C000806498
:10FBD0008093C0006927215030402115310569F715
:10FBE0006093C6008091C00086FFFCCF8091C0006A
:10FBF00080648093C00085B1805885B9772081F4F6
:10FC0000C15DDE4F0881CF52D1400F5FC15DDE4F35
:10FC10000883CF52D14090E0A0E0B0E00D941AF4F8
:10FC200027982F9880E090E020ED37E0F901319798
:10FC3000F1F7019684369105C9F700008091C00064
:10FC40008D7F8093C00081E180935700E895EE2777
:10FC5000FF270994FFCF90E00D941AF497FB092E2B
:10FC600007260AD077FD04D02ED006D000201AF443
:10FC7000709561957F4F0895F6F7909581959F4F08
:10FC80000895A1E21A2EAA1BBB1BFD010DC0AA1FDD
:10FC9000BB1FEE1FFF1FA217B307E407F50720F0F5
:10FCA000A21BB30BE40BF50B661F771F881F991F70
:10FCB0001A9469F760957095809590959B01AC01B9
:10FCC000BD01CF010895AA1BBB1B51E107C0AA1FAC
:10FCD000BB1FA617B70710F0A61BB70B881F991FED
:10FCE0005A95A9F780959095BC01CD010895F99991
:10FCF000FECF92BD81BDF89A992780B50895262F31
:10FD0000F999FECF1FBA92BD81BD20BD0FB6F89400
:0EFD1000FA9AF99A0FBE01960895F894FFCF63
:00000001FF
